{"abi":[{"type":"function","name":"agentStrategies","inputs":[{"name":"","type":"address","internalType":"address"},{"name":"","type":"uint256","internalType":"uint256"}],"outputs":[{"name":"","type":"bytes32","internalType":"bytes32"}],"stateMutability":"view"},{"type":"function","name":"commitStrategy","inputs":[{"name":"commitmentHash","type":"bytes32","internalType":"bytes32"},{"name":"strategyUri","type":"string","internalType":"string"},{"name":"isPrivate","type":"bool","internalType":"bool"}],"outputs":[],"stateMutability":"nonpayable"},{"type":"function","name":"getAgentStrategies","inputs":[{"name":"agent","type":"address","internalType":"address"}],"outputs":[{"name":"","type":"bytes32[]","internalType":"bytes32[]"}],"stateMutability":"view"},{"type":"function","name":"getStrategy","inputs":[{"name":"commitmentHash","type":"bytes32","internalType":"bytes32"}],"outputs":[{"name":"","type":"tuple","internalType":"struct PrivacyVault.StrategyRecord","components":[{"name":"agent","type":"address","internalType":"address"},{"name":"commitmentHash","type":"bytes32","internalType":"bytes32"},{"name":"strategyUri","type":"string","internalType":"string"},{"name":"isPrivate","type":"bool","internalType":"bool"},{"name":"timestamp","type":"uint256","internalType":"uint256"},{"name":"txExecuted","type":"string","internalType":"string"}]}],"stateMutability":"view"},{"type":"function","name":"linkExecution","inputs":[{"name":"commitmentHash","type":"bytes32","internalType":"bytes32"},{"name":"txHash","type":"string","internalType":"string"}],"outputs":[],"stateMutability":"nonpayable"},{"type":"function","name":"revealStrategy","inputs":[{"name":"commitmentHash","type":"bytes32","internalType":"bytes32"},{"name":"strategyUri","type":"string","internalType":"string"}],"outputs":[],"stateMutability":"nonpayable"},{"type":"function","name":"strategies","inputs":[{"name":"","type":"bytes32","internalType":"bytes32"}],"outputs":[{"name":"agent","type":"address","internalType":"address"},{"name":"commitmentHash","type":"bytes32","internalType":"bytes32"},{"name":"strategyUri","type":"string","internalType":"string"},{"name":"isPrivate","type":"bool","internalType":"bool"},{"name":"timestamp","type":"uint256","internalType":"uint256"},{"name":"txExecuted","type":"string","internalType":"string"}],"stateMutability":"view"},{"type":"event","name":"ExecutionLinked","inputs":[{"name":"commitmentHash","type":"bytes32","indexed":true,"internalType":"bytes32"},{"name":"txHash","type":"string","indexed":false,"internalType":"string"}],"anonymous":false},{"type":"event","name":"StrategyCommitted","inputs":[{"name":"commitmentHash","type":"bytes32","indexed":true,"internalType":"bytes32"},{"name":"agent","type":"address","indexed":true,"internalType":"address"},{"name":"isPrivate","type":"bool","indexed":false,"internalType":"bool"},{"name":"timestamp","type":"uint256","indexed":false,"internalType":"uint256"}],"anonymous":false},{"type":"event","name":"StrategyRevealed","inputs":[{"name":"commitmentHash","type":"bytes32","indexed":true,"internalType":"bytes32"},{"name":"strategyUri","type":"string","indexed":false,"internalType":"string"}],"anonymous":false}],"bytecode":{"object":"0x6080604052348015600e575f5ffd5b5061174c8061001c5f395ff3fe608060405234801561000f575f5ffd5b506004361061007b575f3560e01c806379fc68d91161005957806379fc68d9146101145780639548297714610144578063b01e160b14610160578063fd65f8931461017c5761007b565b8063185d8b641461007f57806328c84bbd146100af5780633ff34eb9146100df575b5f5ffd5b61009960048036038101906100949190610b89565b610198565b6040516100a69190610c74565b60405180910390f35b6100c960048036038101906100c49190610cbe565b61022b565b6040516100d69190610e27565b60405180910390f35b6100f960048036038101906100f49190610cbe565b6103f7565b60405161010b96959493929190610ecb565b60405180910390f35b61012e60048036038101906101299190610f62565b610565565b60405161013b9190610fa0565b60405180910390f35b61015e6004803603810190610159919061101a565b610590565b005b61017a6004803603810190610175919061101a565b6106d9565b005b610196600480360381019061019191906110a1565b610820565b005b606060015f8373ffffffffffffffffffffffffffffffffffffffff1673ffffffffffffffffffffffffffffffffffffffff1681526020019081526020015f2080548060200260200160405190810160405280929190818152602001828054801561021f57602002820191905f5260205f20905b81548152602001906001019080831161020b575b50505050509050919050565b610233610add565b5f5f8381526020019081526020015f206040518060c00160405290815f82015f9054906101000a900473ffffffffffffffffffffffffffffffffffffffff1673ffffffffffffffffffffffffffffffffffffffff1673ffffffffffffffffffffffffffffffffffffffff168152602001600182015481526020016002820180546102bc9061113f565b80601f01602080910402602001604051908101604052809291908181526020018280546102e89061113f565b80156103335780601f1061030a57610100808354040283529160200191610333565b820191905f5260205f20905b81548152906001019060200180831161031657829003601f168201915b50505050508152602001600382015f9054906101000a900460ff16151515158152602001600482015481526020016005820180546103709061113f565b80601f016020809104026020016040519081016040528092919081815260200182805461039c9061113f565b80156103e75780601f106103be576101008083540402835291602001916103e7565b820191905f5260205f20905b8154815290600101906020018083116103ca57829003601f168201915b5050505050815250509050919050565b5f602052805f5260405f205f91509050805f015f9054906101000a900473ffffffffffffffffffffffffffffffffffffffff16908060010154908060020180546104409061113f565b80601f016020809104026020016040519081016040528092919081815260200182805461046c9061113f565b80156104b75780601f1061048e576101008083540402835291602001916104b7565b820191905f5260205f20905b81548152906001019060200180831161049a57829003601f168201915b505050505090806003015f9054906101000a900460ff16908060040154908060050180546104e49061113f565b80601f01602080910402602001604051908101604052809291908181526020018280546105109061113f565b801561055b5780601f106105325761010080835404028352916020019161055b565b820191905f5260205f20905b81548152906001019060200180831161053e57829003601f168201915b5050505050905086565b6001602052815f5260405f20818154811061057e575f80fd5b905f5260205f20015f91509150505481565b5f5f5f8581526020019081526020015f2090503373ffffffffffffffffffffffffffffffffffffffff16815f015f9054906101000a900473ffffffffffffffffffffffffffffffffffffffff1673ffffffffffffffffffffffffffffffffffffffff1614610633576040517f08c379a000000000000000000000000000000000000000000000000000000000815260040161062a906111b9565b60405180910390fd5b5f8160050180546106439061113f565b905014610685576040517f08c379a000000000000000000000000000000000000000000000000000000000815260040161067c90611221565b60405180910390fd5b8282826005019182610698929190611427565b50837f801bf8027255029d751d2859ad5697effa3cad04b71d7cf8e7d051c904ae45fa84846040516106cb92919061152e565b60405180910390a250505050565b5f5f5f8581526020019081526020015f2090503373ffffffffffffffffffffffffffffffffffffffff16815f015f9054906101000a900473ffffffffffffffffffffffffffffffffffffffff1673ffffffffffffffffffffffffffffffffffffffff161461077c576040517f08c379a0000000000000000000000000000000000000000000000000000000008152600401610773906111b9565b60405180910390fd5b806003015f9054906101000a900460ff166107cc576040517f08c379a00000000000000000000000000000000000000000000000000000000081526004016107c39061159a565b60405180910390fd5b82828260020191826107df929190611427565b50837f390a08eb9df8f09fab959e595d0dfc7340242487ab7c65aeddb5b2f81b4bcd29848460405161081292919061152e565b60405180910390a250505050565b5f73ffffffffffffffffffffffffffffffffffffffff165f5f8681526020019081526020015f205f015f9054906101000a900473ffffffffffffffffffffffffffffffffffffffff1673ffffffffffffffffffffffffffffffffffffffff16146108bf576040517f08c379a00000000000000000000000000000000000000000000000000000000081526004016108b690611602565b60405180910390fd5b6040518060c001604052803373ffffffffffffffffffffffffffffffffffffffff1681526020018581526020018261093a5784848080601f0160208091040260200160405190810160405280939291908181526020018383808284375f81840152601f19601f8201169050808301925050505050505061094a565b60405180602001604052805f8152505b8152602001821515815260200142815260200160405180602001604052805f8152508152505f5f8681526020019081526020015f205f820151815f015f6101000a81548173ffffffffffffffffffffffffffffffffffffffff021916908373ffffffffffffffffffffffffffffffffffffffff1602179055506020820151816001015560408201518160020190816109e29190611620565b506060820151816003015f6101000a81548160ff0219169083151502179055506080820151816004015560a0820151816005019081610a219190611620565b5090505060015f3373ffffffffffffffffffffffffffffffffffffffff1673ffffffffffffffffffffffffffffffffffffffff1681526020019081526020015f2084908060018154018082558091505060019003905f5260205f20015f90919091909150553373ffffffffffffffffffffffffffffffffffffffff16847f3e85346ff1906c866ddffb6d7f28fd001f1f6573ae293b13eeafc4d3b97861308342604051610acf9291906116ef565b60405180910390a350505050565b6040518060c001604052805f73ffffffffffffffffffffffffffffffffffffffff1681526020015f8152602001606081526020015f151581526020015f8152602001606081525090565b5f5ffd5b5f5ffd5b5f73ffffffffffffffffffffffffffffffffffffffff82169050919050565b5f610b5882610b2f565b9050919050565b610b6881610b4e565b8114610b72575f5ffd5b50565b5f81359050610b8381610b5f565b92915050565b5f60208284031215610b9e57610b9d610b27565b5b5f610bab84828501610b75565b91505092915050565b5f81519050919050565b5f82825260208201905092915050565b5f819050602082019050919050565b5f819050919050565b610bef81610bdd565b82525050565b5f610c008383610be6565b60208301905092915050565b5f602082019050919050565b5f610c2282610bb4565b610c2c8185610bbe565b9350610c3783610bce565b805f5b83811015610c67578151610c4e8882610bf5565b9750610c5983610c0c565b925050600181019050610c3a565b5085935050505092915050565b5f6020820190508181035f830152610c8c8184610c18565b905092915050565b610c9d81610bdd565b8114610ca7575f5ffd5b50565b5f81359050610cb881610c94565b92915050565b5f60208284031215610cd357610cd2610b27565b5b5f610ce084828501610caa565b91505092915050565b610cf281610b4e565b82525050565b5f81519050919050565b5f82825260208201905092915050565b8281835e5f83830152505050565b5f601f19601f8301169050919050565b5f610d3a82610cf8565b610d448185610d02565b9350610d54818560208601610d12565b610d5d81610d20565b840191505092915050565b5f8115159050919050565b610d7c81610d68565b82525050565b5f819050919050565b610d9481610d82565b82525050565b5f60c083015f830151610daf5f860182610ce9565b506020830151610dc26020860182610be6565b5060408301518482036040860152610dda8282610d30565b9150506060830151610def6060860182610d73565b506080830151610e026080860182610d8b565b5060a083015184820360a0860152610e1a8282610d30565b9150508091505092915050565b5f6020820190508181035f830152610e3f8184610d9a565b905092915050565b610e5081610b4e565b82525050565b610e5f81610bdd565b82525050565b5f82825260208201905092915050565b5f610e7f82610cf8565b610e898185610e65565b9350610e99818560208601610d12565b610ea281610d20565b840191505092915050565b610eb681610d68565b82525050565b610ec581610d82565b82525050565b5f60c082019050610ede5f830189610e47565b610eeb6020830188610e56565b8181036040830152610efd8187610e75565b9050610f0c6060830186610ead565b610f196080830185610ebc565b81810360a0830152610f2b8184610e75565b9050979650505050505050565b610f4181610d82565b8114610f4b575f5ffd5b50565b5f81359050610f5c81610f38565b92915050565b5f5f60408385031215610f7857610f77610b27565b5b5f610f8585828601610b75565b9250506020610f9685828601610f4e565b9150509250929050565b5f602082019050610fb35f830184610e56565b92915050565b5f5ffd5b5f5ffd5b5f5ffd5b5f5f83601f840112610fda57610fd9610fb9565b5b8235905067ffffffffffffffff811115610ff757610ff6610fbd565b5b60208301915083600182028301111561101357611012610fc1565b5b9250929050565b5f5f5f6040848603121561103157611030610b27565b5b5f61103e86828701610caa565b935050602084013567ffffffffffffffff81111561105f5761105e610b2b565b5b61106b86828701610fc5565b92509250509250925092565b61108081610d68565b811461108a575f5ffd5b50565b5f8135905061109b81611077565b92915050565b5f5f5f5f606085870312156110b9576110b8610b27565b5b5f6110c687828801610caa565b945050602085013567ffffffffffffffff8111156110e7576110e6610b2b565b5b6110f387828801610fc5565b935093505060406111068782880161108d565b91505092959194509250565b7f4e487b71000000000000000000000000000000000000000000000000000000005f52602260045260245ffd5b5f600282049050600182168061115657607f821691505b60208210810361116957611168611112565b5b50919050565b7f4e6f7420796f75722073747261746567790000000000000000000000000000005f82015250565b5f6111a3601183610e65565b91506111ae8261116f565b602082019050919050565b5f6020820190508181035f8301526111d081611197565b9050919050565b7f416c7265616479206578656375746564000000000000000000000000000000005f82015250565b5f61120b601083610e65565b9150611216826111d7565b602082019050919050565b5f6020820190508181035f830152611238816111ff565b9050919050565b5f82905092915050565b7f4e487b71000000000000000000000000000000000000000000000000000000005f52604160045260245ffd5b5f819050815f5260205f209050919050565b5f6020601f8301049050919050565b5f82821b905092915050565b5f600883026112d27fffffffffffffffffffffffffffffffffffffffffffffffffffffffffffffffff82611297565b6112dc8683611297565b95508019841693508086168417925050509392505050565b5f819050919050565b5f61131761131261130d84610d82565b6112f4565b610d82565b9050919050565b5f819050919050565b611330836112fd565b61134461133c8261131e565b8484546112a3565b825550505050565b5f5f905090565b61135b61134c565b611366818484611327565b505050565b5f5b8281101561138c576113815f828401611353565b60018101905061136d565b505050565b601f8211156113df57828211156113de576113ab81611276565b6113b483611288565b6113bd85611288565b60208610156113ca575f90505b8083016113d98284038261136b565b505050505b5b505050565b5f82821c905092915050565b5f6113ff5f19846008026113e4565b1980831691505092915050565b5f61141783836113f0565b9150826002028217905092915050565b611431838361123f565b67ffffffffffffffff81111561144a57611449611249565b5b611454825461113f565b61145f828285611391565b5f601f83116001811461148c575f841561147a578287013590505b611484858261140c565b8655506114eb565b601f19841661149a86611276565b5f5b828110156114c15784890135825560018201915060208501945060208101905061149c565b868310156114de57848901356114da601f8916826113f0565b8355505b6001600288020188555050505b50505050505050565b828183375f83830152505050565b5f61150d8385610e65565b935061151a8385846114f4565b61152383610d20565b840190509392505050565b5f6020820190508181035f830152611547818486611502565b90509392505050565b7f4e6f7420612070726976617465207374726174656779000000000000000000005f82015250565b5f611584601683610e65565b915061158f82611550565b602082019050919050565b5f6020820190508181035f8301526115b181611578565b9050919050565b7f416c726561647920636f6d6d69747465640000000000000000000000000000005f82015250565b5f6115ec601183610e65565b91506115f7826115b8565b602082019050919050565b5f6020820190508181035f830152611619816115e0565b9050919050565b61162982610cf8565b67ffffffffffffffff81111561164257611641611249565b5b61164c825461113f565b611657828285611391565b5f60209050601f831160018114611688575f8415611676578287015190505b611680858261140c565b8655506116e7565b601f19841661169686611276565b5f5b828110156116bd57848901518255600182019150602085019450602081019050611698565b868310156116da57848901516116d6601f8916826113f0565b8355505b6001600288020188555050505b505050505050565b5f6040820190506117025f830185610ead565b61170f6020830184610ebc565b939250505056fea264697066735822122097c5ce415b12fef5df50baac5e7f3f549858742e5f85a4874faf7768b1d2458c64736f6c63430008210033","linkReferences":{}},"methodIdentifiers":{"agentStrategies(address,uint256)":"79fc68d9","commitStrategy(bytes32,string,bool)":"fd65f893","getAgentStrategies(address)":"185d8b64","getStrategy(bytes32)":"28c84bbd","linkExecution(bytes32,string)":"95482977","revealStrategy(bytes32,string)":"b01e160b","strategies(bytes32)":"3ff34eb9"},"id":18}