{"abi":[{"type":"constructor","inputs":[{"name":"initialOracle","type":"address","internalType":"address"}],"stateMutability":"nonpayable"},{"type":"function","name":"approve","inputs":[{"name":"to","type":"address","internalType":"address"},{"name":"tokenId","type":"uint256","internalType":"uint256"}],"outputs":[],"stateMutability":"nonpayable"},{"type":"function","name":"authorizeUsage","inputs":[{"name":"tokenId","type":"uint256","internalType":"uint256"},{"name":"executor","type":"address","internalType":"address"},{"name":"permissions","type":"bytes","internalType":"bytes"}],"outputs":[],"stateMutability":"nonpayable"},{"type":"function","name":"balanceOf","inputs":[{"name":"owner","type":"address","internalType":"address"}],"outputs":[{"name":"","type":"uint256","internalType":"uint256"}],"stateMutability":"view"},{"type":"function","name":"clone","inputs":[{"name":"to","type":"address","internalType":"address"},{"name":"tokenId","type":"uint256","internalType":"uint256"},{"name":"sealedKey","type":"bytes","internalType":"bytes"},{"name":"proof","type":"bytes","internalType":"bytes"}],"outputs":[{"name":"","type":"uint256","internalType":"uint256"}],"stateMutability":"nonpayable"},{"type":"function","name":"getApproved","inputs":[{"name":"tokenId","type":"uint256","internalType":"uint256"}],"outputs":[{"name":"","type":"address","internalType":"address"}],"stateMutability":"view"},{"type":"function","name":"getEncryptedUri","inputs":[{"name":"tokenId","type":"uint256","internalType":"uint256"}],"outputs":[{"name":"","type":"string","internalType":"string"}],"stateMutability":"view"},{"type":"function","name":"getMetadataHash","inputs":[{"name":"tokenId","type":"uint256","internalType":"uint256"}],"outputs":[{"name":"","type":"bytes32","internalType":"bytes32"}],"stateMutability":"view"},{"type":"function","name":"isApprovedForAll","inputs":[{"name":"owner","type":"address","internalType":"address"},{"name":"operator","type":"address","internalType":"address"}],"outputs":[{"name":"","type":"bool","internalType":"bool"}],"stateMutability":"view"},{"type":"function","name":"mint","inputs":[{"name":"to","type":"address","internalType":"address"},{"name":"encryptedUri","type":"string","internalType":"string"},{"name":"metadataHash","type":"bytes32","internalType":"bytes32"}],"outputs":[{"name":"","type":"uint256","internalType":"uint256"}],"stateMutability":"nonpayable"},{"type":"function","name":"name","inputs":[],"outputs":[{"name":"","type":"string","internalType":"string"}],"stateMutability":"view"},{"type":"function","name":"oracle","inputs":[],"outputs":[{"name":"","type":"address","internalType":"address"}],"stateMutability":"view"},{"type":"function","name":"owner","inputs":[],"outputs":[{"name":"","type":"address","internalType":"address"}],"stateMutability":"view"},{"type":"function","name":"ownerOf","inputs":[{"name":"tokenId","type":"uint256","internalType":"uint256"}],"outputs":[{"name":"","type":"address","internalType":"address"}],"stateMutability":"view"},{"type":"function","name":"renounceOwnership","inputs":[],"outputs":[],"stateMutability":"nonpayable"},{"type":"function","name":"safeTransferFrom","inputs":[{"name":"from","type":"address","internalType":"address"},{"name":"to","type":"address","internalType":"address"},{"name":"tokenId","type":"uint256","internalType":"uint256"}],"outputs":[],"stateMutability":"nonpayable"},{"type":"function","name":"safeTransferFrom","inputs":[{"name":"from","type":"address","internalType":"address"},{"name":"to","type":"address","internalType":"address"},{"name":"tokenId","type":"uint256","internalType":"uint256"},{"name":"data","type":"bytes","internalType":"bytes"}],"outputs":[],"stateMutability":"nonpayable"},{"type":"function","name":"setApprovalForAll","inputs":[{"name":"operator","type":"address","internalType":"address"},{"name":"approved","type":"bool","internalType":"bool"}],"outputs":[],"stateMutability":"nonpayable"},{"type":"function","name":"setOracle","inputs":[{"name":"newOracle","type":"address","internalType":"address"}],"outputs":[],"stateMutability":"nonpayable"},{"type":"function","name":"supportsInterface","inputs":[{"name":"interfaceId","type":"bytes4","internalType":"bytes4"}],"outputs":[{"name":"","type":"bool","internalType":"bool"}],"stateMutability":"view"},{"type":"function","name":"symbol","inputs":[],"outputs":[{"name":"","type":"string","internalType":"string"}],"stateMutability":"view"},{"type":"function","name":"tokenURI","inputs":[{"name":"tokenId","type":"uint256","internalType":"uint256"}],"outputs":[{"name":"","type":"string","internalType":"string"}],"stateMutability":"view"},{"type":"function","name":"transfer","inputs":[{"name":"from","type":"address","internalType":"address"},{"name":"to","type":"address","internalType":"address"},{"name":"tokenId","type":"uint256","internalType":"uint256"},{"name":"sealedKey","type":"bytes","internalType":"bytes"},{"name":"proof","type":"bytes","internalType":"bytes"}],"outputs":[],"stateMutability":"nonpayable"},{"type":"function","name":"transferFrom","inputs":[{"name":"from","type":"address","internalType":"address"},{"name":"to","type":"address","internalType":"address"},{"name":"tokenId","type":"uint256","internalType":"uint256"}],"outputs":[],"stateMutability":"nonpayable"},{"type":"function","name":"transferOwnership","inputs":[{"name":"newOwner","type":"address","internalType":"address"}],"outputs":[],"stateMutability":"nonpayable"},{"type":"event","name":"Approval","inputs":[{"name":"owner","type":"address","indexed":true,"internalType":"address"},{"name":"approved","type":"address","indexed":true,"internalType":"address"},{"name":"tokenId","type":"uint256","indexed":true,"internalType":"uint256"}],"anonymous":false},{"type":"event","name":"ApprovalForAll","inputs":[{"name":"owner","type":"address","indexed":true,"internalType":"address"},{"name":"operator","type":"address","indexed":true,"internalType":"address"},{"name":"approved","type":"bool","indexed":false,"internalType":"bool"}],"anonymous":false},{"type":"event","name":"BatchMetadataUpdate","inputs":[{"name":"_fromTokenId","type":"uint256","indexed":false,"internalType":"uint256"},{"name":"_toTokenId","type":"uint256","indexed":false,"internalType":"uint256"}],"anonymous":false},{"type":"event","name":"MetadataUpdate","inputs":[{"name":"_tokenId","type":"uint256","indexed":false,"internalType":"uint256"}],"anonymous":false},{"type":"event","name":"MetadataUpdated","inputs":[{"name":"tokenId","type":"uint256","indexed":true,"internalType":"uint256"},{"name":"newHash","type":"bytes32","indexed":false,"internalType":"bytes32"}],"anonymous":false},{"type":"event","name":"OracleUpdated","inputs":[{"name":"oldOracle","type":"address","indexed":false,"internalType":"address"},{"name":"newOracle","type":"address","indexed":false,"internalType":"address"}],"anonymous":false},{"type":"event","name":"OwnershipTransferred","inputs":[{"name":"previousOwner","type":"address","indexed":true,"internalType":"address"},{"name":"newOwner","type":"address","indexed":true,"internalType":"address"}],"anonymous":false},{"type":"event","name":"Transfer","inputs":[{"name":"from","type":"address","indexed":true,"internalType":"address"},{"name":"to","type":"address","indexed":true,"internalType":"address"},{"name":"tokenId","type":"uint256","indexed":true,"internalType":"uint256"}],"anonymous":false},{"type":"event","name":"UsageAuthorized","inputs":[{"name":"tokenId","type":"uint256","indexed":true,"internalType":"uint256"},{"name":"executor","type":"address","indexed":true,"internalType":"address"},{"name":"permissions","type":"bytes","indexed":false,"internalType":"bytes"}],"anonymous":false},{"type":"error","name":"ERC721IncorrectOwner","inputs":[{"name":"sender","type":"address","internalType":"address"},{"name":"tokenId","type":"uint256","internalType":"uint256"},{"name":"owner","type":"address","internalType":"address"}]},{"type":"error","name":"ERC721InsufficientApproval","inputs":[{"name":"operator","type":"address","internalType":"address"},{"name":"tokenId","type":"uint256","internalType":"uint256"}]},{"type":"error","name":"ERC721InvalidApprover","inputs":[{"name":"approver","type":"address","internalType":"address"}]},{"type":"error","name":"ERC721InvalidOperator","inputs":[{"name":"operator","type":"address","internalType":"address"}]},{"type":"error","name":"ERC721InvalidOwner","inputs":[{"name":"owner","type":"address","internalType":"address"}]},{"type":"error","name":"ERC721InvalidReceiver","inputs":[{"name":"receiver","type":"address","internalType":"address"}]},{"type":"error","name":"ERC721InvalidSender","inputs":[{"name":"sender","type":"address","internalType":"address"}]},{"type":"error","name":"ERC721NonexistentToken","inputs":[{"name":"tokenId","type":"uint256","internalType":"uint256"}]},{"type":"error","name":"OwnableInvalidOwner","inputs":[{"name":"owner","type":"address","internalType":"address"}]},{"type":"error","name":"OwnableUnauthorizedAccount","inputs":[{"name":"account","type":"address","internalType":"address"}]},{"type":"error","name":"ReentrancyGuardReentrantCall","inputs":[]}],"bytecode":{"object":"0x608060405234801561000f575f5ffd5b50604051613fef380380613fef833981810160405281019061003191906102fc565b336040518060400160405280601381526020017f47726f7120416c706861204149204167656e74000000000000000000000000008152506040518060400160405280600481526020017f4741414900000000000000000000000000000000000000000000000000000000815250815f90816100ac9190610575565b5080600190816100bc9190610575565b5050505f73ffffffffffffffffffffffffffffffffffffffff168173ffffffffffffffffffffffffffffffffffffffff160361012f575f6040517f1e4fbdf70000000000000000000000000000000000000000000000000000000081526004016101269190610653565b60405180910390fd5b61013e816101a960201b60201c565b50600161015d61015261026c60201b60201c565b61029560201b60201c565b5f018190555080600c5f6101000a81548173ffffffffffffffffffffffffffffffffffffffff021916908373ffffffffffffffffffffffffffffffffffffffff1602179055505061066c565b5f60075f9054906101000a900473ffffffffffffffffffffffffffffffffffffffff1690508160075f6101000a81548173ffffffffffffffffffffffffffffffffffffffff021916908373ffffffffffffffffffffffffffffffffffffffff1602179055508173ffffffffffffffffffffffffffffffffffffffff168173ffffffffffffffffffffffffffffffffffffffff167f8be0079c531659141344cd1fd0a4f28419497f9722a3daafe3b4186f6b6457e060405160405180910390a35050565b5f7f9b779b17422d0df92223018b32b4d1fa46e071723d6817e2486d003becc55f005f1b905090565b5f819050919050565b5f5ffd5b5f73ffffffffffffffffffffffffffffffffffffffff82169050919050565b5f6102cb826102a2565b9050919050565b6102db816102c1565b81146102e5575f5ffd5b50565b5f815190506102f6816102d2565b92915050565b5f602082840312156103115761031061029e565b5b5f61031e848285016102e8565b91505092915050565b5f81519050919050565b7f4e487b71000000000000000000000000000000000000000000000000000000005f52604160045260245ffd5b7f4e487b71000000000000000000000000000000000000000000000000000000005f52602260045260245ffd5b5f60028204905060018216806103a257607f821691505b6020821081036103b5576103b461035e565b5b50919050565b5f819050815f5260205f209050919050565b5f6020601f8301049050919050565b5f82821b905092915050565b5f600883026104177fffffffffffffffffffffffffffffffffffffffffffffffffffffffffffffffff826103dc565b61042186836103dc565b95508019841693508086168417925050509392505050565b5f819050919050565b5f819050919050565b5f61046561046061045b84610439565b610442565b610439565b9050919050565b5f819050919050565b61047e8361044b565b61049261048a8261046c565b8484546103e8565b825550505050565b5f5f905090565b6104a961049a565b6104b4818484610475565b505050565b5f5b828110156104da576104cf5f8284016104a1565b6001810190506104bb565b505050565b601f82111561052d578282111561052c576104f9816103bb565b610502836103cd565b61050b856103cd565b6020861015610518575f90505b808301610527828403826104b9565b505050505b5b505050565b5f82821c905092915050565b5f61054d5f1984600802610532565b1980831691505092915050565b5f610565838361053e565b9150826002028217905092915050565b61057e82610327565b67ffffffffffffffff81111561059757610596610331565b5b6105a1825461038b565b6105ac8282856104df565b5f60209050601f8311600181146105dd575f84156105cb578287015190505b6105d5858261055a565b86555061063c565b601f1984166105eb866103bb565b5f5b82811015610612578489015182556001820191506020850194506020810190506105ed565b8683101561062f578489015161062b601f89168261053e565b8355505b6001600288020188555050505b505050505050565b61064d816102c1565b82525050565b5f6020820190506106665f830184610644565b92915050565b613976806106795f395ff3fe608060405234801561000f575f5ffd5b5060043610610156575f3560e01c80638da5cb5b116100c1578063c87b56dd1161007a578063c87b56dd146103ac578063ca14bee7146103dc578063d34047b61461040c578063e985e9c51461043c578063f2fde38b1461046c578063f448f8711461048857610156565b80638da5cb5b146102ec57806392b414181461030a57806395d89b411461033a578063a22cb46514610358578063b88d4fde14610374578063c78fed041461039057610156565b80636352211e116101135780636352211e1461022c57806370a082311461025c578063715018a61461028c5780637adbf973146102965780637b297a6f146102b25780637dc0d1d0146102ce57610156565b806301ffc9a71461015a57806306fdde031461018a578063081812fc146101a8578063095ea7b3146101d857806323b872dd146101f457806342842e0e14610210575b5f5ffd5b610174600480360381019061016f9190612693565b6104b8565b60405161018191906126d8565b60405180910390f35b610192610518565b60405161019f9190612761565b60405180910390f35b6101c260048036038101906101bd91906127b4565b6105a7565b6040516101cf919061281e565b60405180910390f35b6101f260048036038101906101ed9190612861565b6105c2565b005b61020e6004803603810190610209919061289f565b6105d8565b005b61022a6004803603810190610225919061289f565b6106d7565b005b610246600480360381019061024191906127b4565b6106f6565b604051610253919061281e565b60405180910390f35b610276600480360381019061027191906128ef565b610707565b6040516102839190612929565b60405180910390f35b6102946107bd565b005b6102b060048036038101906102ab91906128ef565b6107d0565b005b6102cc60048036038101906102c791906129a3565b610875565b005b6102d661099e565b6040516102e3919061281e565b60405180910390f35b6102f46109c3565b604051610301919061281e565b60405180910390f35b610324600480360381019061031f91906127b4565b6109eb565b6040516103319190612761565b60405180910390f35b610342610a8c565b60405161034f9190612761565b60405180910390f35b610372600480360381019061036d9190612a3e565b610b1c565b005b61038e60048036038101906103899190612ba4565b610b32565b005b6103aa60048036038101906103a59190612c24565b610b57565b005b6103c660048036038101906103c191906127b4565b610e08565b6040516103d39190612761565b60405180910390f35b6103f660048036038101906103f19190612cdb565b610e84565b6040516104039190612929565b60405180910390f35b61042660048036038101906104219190612e06565b6110a2565b6040516104339190612929565b60405180910390f35b61045660048036038101906104519190612e77565b611192565b60405161046391906126d8565b60405180910390f35b610486600480360381019061048191906128ef565b611220565b005b6104a2600480360381019061049d91906127b4565b6112a4565b6040516104af9190612ec4565b60405180910390f35b5f634906490660e01b7bffffffffffffffffffffffffffffffffffffffffffffffffffffffff1916827bffffffffffffffffffffffffffffffffffffffffffffffffffffffff191614806105115750610510826112be565b5b9050919050565b60605f805461052690612f0a565b80601f016020809104026020016040519081016040528092919081815260200182805461055290612f0a565b801561059d5780601f106105745761010080835404028352916020019161059d565b820191905f5260205f20905b81548152906001019060200180831161058057829003601f168201915b5050505050905090565b5f6105b18261139f565b506105bb82611425565b9050919050565b6105d482826105cf61145e565b611465565b5050565b5f73ffffffffffffffffffffffffffffffffffffffff168273ffffffffffffffffffffffffffffffffffffffff1603610648575f6040517f64a0ae9200000000000000000000000000000000000000000000000000000000815260040161063f919061281e565b60405180910390fd5b5f61065b838361065661145e565b611477565b90508373ffffffffffffffffffffffffffffffffffffffff168173ffffffffffffffffffffffffffffffffffffffff16146106d1578382826040517f64283d7b0000000000000000000000000000000000000000000000000000000081526004016106c893929190612f3a565b60405180910390fd5b50505050565b6106f183838360405180602001604052805f815250610b32565b505050565b5f6107008261139f565b9050919050565b5f5f73ffffffffffffffffffffffffffffffffffffffff168273ffffffffffffffffffffffffffffffffffffffff1603610778575f6040517f89c62b6400000000000000000000000000000000000000000000000000000000815260040161076f919061281e565b60405180910390fd5b60035f8373ffffffffffffffffffffffffffffffffffffffff1673ffffffffffffffffffffffffffffffffffffffff1681526020019081526020015f20549050919050565b6107c5611682565b6107ce5f611709565b565b6107d8611682565b7f078c3b417dadf69374a59793b829c52001247130433427049317bde56607b1b7600c5f9054906101000a900473ffffffffffffffffffffffffffffffffffffffff168260405161082a929190612f6f565b60405180910390a180600c5f6101000a81548173ffffffffffffffffffffffffffffffffffffffff021916908373ffffffffffffffffffffffffffffffffffffffff16021790555050565b3373ffffffffffffffffffffffffffffffffffffffff16610895856106f6565b73ffffffffffffffffffffffffffffffffffffffff16146108eb576040517f08c379a00000000000000000000000000000000000000000000000000000000081526004016108e290612fe0565b60405180910390fd5b8181600b5f8781526020019081526020015f205f8673ffffffffffffffffffffffffffffffffffffffff1673ffffffffffffffffffffffffffffffffffffffff1681526020019081526020015f2091826109469291906131b9565b508273ffffffffffffffffffffffffffffffffffffffff16847fe2008fce6589f5fc55532de67b4d5ab3eddc8f8703486df3baeeef14f33242bd84846040516109909291906132c2565b60405180910390a350505050565b600c5f9054906101000a900473ffffffffffffffffffffffffffffffffffffffff1681565b5f60075f9054906101000a900473ffffffffffffffffffffffffffffffffffffffff16905090565b6060600a5f8381526020019081526020015f208054610a0990612f0a565b80601f0160208091040260200160405190810160405280929190818152602001828054610a3590612f0a565b8015610a805780601f10610a5757610100808354040283529160200191610a80565b820191905f5260205f20905b815481529060010190602001808311610a6357829003601f168201915b50505050509050919050565b606060018054610a9b90612f0a565b80601f0160208091040260200160405190810160405280929190818152602001828054610ac790612f0a565b8015610b125780601f10610ae957610100808354040283529160200191610b12565b820191905f5260205f20905b815481529060010190602001808311610af557829003601f168201915b5050505050905090565b610b2e610b2761145e565b83836117cc565b5050565b610b3d8484846105d8565b610b51610b4861145e565b858585856119a5565b50505050565b610b5f611b51565b81815f73ffffffffffffffffffffffffffffffffffffffff16600c5f9054906101000a900473ffffffffffffffffffffffffffffffffffffffff1673ffffffffffffffffffffffffffffffffffffffff1614610c9057600c5f9054906101000a900473ffffffffffffffffffffffffffffffffffffffff1673ffffffffffffffffffffffffffffffffffffffff166355c265fe83836040518363ffffffff1660e01b8152600401610c119291906132c2565b602060405180830381865afa158015610c2c573d5f5f3e3d5ffd5b505050506040513d601f19601f82011682018060405250810190610c5091906132f8565b610c8f576040517f08c379a0000000000000000000000000000000000000000000000000000000008152600401610c869061336d565b60405180910390fd5b5b8873ffffffffffffffffffffffffffffffffffffffff16610cb0886106f6565b73ffffffffffffffffffffffffffffffffffffffff1614610d06576040517f08c379a0000000000000000000000000000000000000000000000000000000008152600401610cfd90612fe0565b60405180910390fd5b5f73ffffffffffffffffffffffffffffffffffffffff168873ffffffffffffffffffffffffffffffffffffffff1603610d74576040517f08c379a0000000000000000000000000000000000000000000000000000000008152600401610d6b906133d5565b60405180910390fd5b8585604051610d84929190613421565b604051809103902060095f8981526020019081526020015f2081905550610dac898989611b73565b867f9c06c04824dfb4ebf41804d51120c24a2ab63d6230efe7b7bc5a199f837dd3ad60095f8a81526020019081526020015f2054604051610ded9190612ec4565b60405180910390a25050610dff611cdb565b50505050505050565b6060610e138261139f565b505f610e1d611cf5565b90505f610e2984611d0b565b90505f825103610e3d578092505050610e7f565b5f81511115610e71578181604051602001610e59929190613473565b60405160208183030381529060405292505050610e7f565b610e7a84611dac565b925050505b919050565b5f610e8d611b51565b82825f73ffffffffffffffffffffffffffffffffffffffff16600c5f9054906101000a900473ffffffffffffffffffffffffffffffffffffffff1673ffffffffffffffffffffffffffffffffffffffff1614610fbe57600c5f9054906101000a900473ffffffffffffffffffffffffffffffffffffffff1673ffffffffffffffffffffffffffffffffffffffff166355c265fe83836040518363ffffffff1660e01b8152600401610f3f9291906132c2565b602060405180830381865afa158015610f5a573d5f5f3e3d5ffd5b505050506040513d601f19601f82011682018060405250810190610f7e91906132f8565b610fbd576040517f08c379a0000000000000000000000000000000000000000000000000000000008152600401610fb49061336d565b60405180910390fd5b5b60085f815480929190610fd0906134c3565b91905055505f6008549050610fe58a82611e12565b600a5f8a81526020019081526020015f20600a5f8381526020019081526020015f2090816110139190613596565b508787604051611024929190613421565b604051809103902060095f8381526020019081526020015f2081905550807f9c06c04824dfb4ebf41804d51120c24a2ab63d6230efe7b7bc5a199f837dd3ad60095f8481526020019081526020015f20546040516110829190612ec4565b60405180910390a2809350505050611098611cdb565b9695505050505050565b5f60085f8154809291906110b5906134c3565b91905055505f60085490506110ca8682611e12565b6111178186868080601f0160208091040260200160405190810160405280939291908181526020018383808284375f81840152601f19601f82011690508083019250505050505050611e2f565b8484600a5f8481526020019081526020015f209182611137929190613685565b508260095f8381526020019081526020015f2081905550807f9c06c04824dfb4ebf41804d51120c24a2ab63d6230efe7b7bc5a199f837dd3ad8460405161117e9190612ec4565b60405180910390a280915050949350505050565b5f60055f8473ffffffffffffffffffffffffffffffffffffffff1673ffffffffffffffffffffffffffffffffffffffff1681526020019081526020015f205f8373ffffffffffffffffffffffffffffffffffffffff1673ffffffffffffffffffffffffffffffffffffffff1681526020019081526020015f205f9054906101000a900460ff16905092915050565b611228611682565b5f73ffffffffffffffffffffffffffffffffffffffff168173ffffffffffffffffffffffffffffffffffffffff1603611298575f6040517f1e4fbdf700000000000000000000000000000000000000000000000000000000815260040161128f919061281e565b60405180910390fd5b6112a181611709565b50565b5f60095f8381526020019081526020015f20549050919050565b5f7f80ac58cd000000000000000000000000000000000000000000000000000000007bffffffffffffffffffffffffffffffffffffffffffffffffffffffff1916827bffffffffffffffffffffffffffffffffffffffffffffffffffffffff1916148061138857507f5b5e139f000000000000000000000000000000000000000000000000000000007bffffffffffffffffffffffffffffffffffffffffffffffffffffffff1916827bffffffffffffffffffffffffffffffffffffffffffffffffffffffff1916145b80611398575061139782611e89565b5b9050919050565b5f5f6113aa83611ef2565b90505f73ffffffffffffffffffffffffffffffffffffffff168173ffffffffffffffffffffffffffffffffffffffff160361141c57826040517f7e2732890000000000000000000000000000000000000000000000000000000081526004016114139190612929565b60405180910390fd5b80915050919050565b5f60045f8381526020019081526020015f205f9054906101000a900473ffffffffffffffffffffffffffffffffffffffff169050919050565b5f33905090565b6114728383836001611f2b565b505050565b5f5f61148284611ef2565b90505f73ffffffffffffffffffffffffffffffffffffffff168373ffffffffffffffffffffffffffffffffffffffff16146114c3576114c28184866120ea565b5b5f73ffffffffffffffffffffffffffffffffffffffff168173ffffffffffffffffffffffffffffffffffffffff161461154e576115025f855f5f611f2b565b600160035f8373ffffffffffffffffffffffffffffffffffffffff1673ffffffffffffffffffffffffffffffffffffffff1681526020019081526020015f205f82825403925050819055505b5f73ffffffffffffffffffffffffffffffffffffffff168573ffffffffffffffffffffffffffffffffffffffff16146115cd57600160035f8773ffffffffffffffffffffffffffffffffffffffff1673ffffffffffffffffffffffffffffffffffffffff1681526020019081526020015f205f82825401925050819055505b8460025f8681526020019081526020015f205f6101000a81548173ffffffffffffffffffffffffffffffffffffffff021916908373ffffffffffffffffffffffffffffffffffffffff160217905550838573ffffffffffffffffffffffffffffffffffffffff168273ffffffffffffffffffffffffffffffffffffffff167fddf252ad1be2c89b69c2b068fc378daa952ba7f163c4a11628f55a4df523b3ef60405160405180910390a4809150509392505050565b61168a61145e565b73ffffffffffffffffffffffffffffffffffffffff166116a86109c3565b73ffffffffffffffffffffffffffffffffffffffff1614611707576116cb61145e565b6040517f118cdaa70000000000000000000000000000000000000000000000000000000081526004016116fe919061281e565b60405180910390fd5b565b5f60075f9054906101000a900473ffffffffffffffffffffffffffffffffffffffff1690508160075f6101000a81548173ffffffffffffffffffffffffffffffffffffffff021916908373ffffffffffffffffffffffffffffffffffffffff1602179055508173ffffffffffffffffffffffffffffffffffffffff168173ffffffffffffffffffffffffffffffffffffffff167f8be0079c531659141344cd1fd0a4f28419497f9722a3daafe3b4186f6b6457e060405160405180910390a35050565b5f73ffffffffffffffffffffffffffffffffffffffff168373ffffffffffffffffffffffffffffffffffffffff160361183c575f6040517fa9fbf51f000000000000000000000000000000000000000000000000000000008152600401611833919061281e565b60405180910390fd5b5f73ffffffffffffffffffffffffffffffffffffffff168273ffffffffffffffffffffffffffffffffffffffff16036118ac57816040517f5b08ba180000000000000000000000000000000000000000000000000000000081526004016118a3919061281e565b60405180910390fd5b8060055f8573ffffffffffffffffffffffffffffffffffffffff1673ffffffffffffffffffffffffffffffffffffffff1681526020019081526020015f205f8473ffffffffffffffffffffffffffffffffffffffff1673ffffffffffffffffffffffffffffffffffffffff1681526020019081526020015f205f6101000a81548160ff0219169083151502179055508173ffffffffffffffffffffffffffffffffffffffff168373ffffffffffffffffffffffffffffffffffffffff167f17307eab39ab6107e8899845ad3d59bd9653f200f220920489ca2b5937696c318360405161199891906126d8565b60405180910390a3505050565b5f8373ffffffffffffffffffffffffffffffffffffffff163b1115611b4a578273ffffffffffffffffffffffffffffffffffffffff1663150b7a02868685856040518563ffffffff1660e01b8152600401611a039493929190613794565b6020604051808303815f875af1925050508015611a3e57506040513d601f19601f82011682018060405250810190611a3b91906137f2565b60015b611abf573d805f8114611a6c576040519150601f19603f3d011682016040523d82523d5f602084013e611a71565b606091505b505f815103611ab757836040517f64a0ae92000000000000000000000000000000000000000000000000000000008152600401611aae919061281e565b60405180910390fd5b805160208201fd5b63150b7a0260e01b7bffffffffffffffffffffffffffffffffffffffffffffffffffffffff1916817bffffffffffffffffffffffffffffffffffffffffffffffffffffffff191614611b4857836040517f64a0ae92000000000000000000000000000000000000000000000000000000008152600401611b3f919061281e565b60405180910390fd5b505b5050505050565b611b596121ad565b6002611b6b611b666121ee565b612217565b5f0181905550565b5f73ffffffffffffffffffffffffffffffffffffffff168273ffffffffffffffffffffffffffffffffffffffff1603611be3575f6040517f64a0ae92000000000000000000000000000000000000000000000000000000008152600401611bda919061281e565b60405180910390fd5b5f611bef83835f611477565b90505f73ffffffffffffffffffffffffffffffffffffffff168173ffffffffffffffffffffffffffffffffffffffff1603611c6157816040517f7e273289000000000000000000000000000000000000000000000000000000008152600401611c589190612929565b60405180910390fd5b8373ffffffffffffffffffffffffffffffffffffffff168173ffffffffffffffffffffffffffffffffffffffff1614611cd5578382826040517f64283d7b000000000000000000000000000000000000000000000000000000008152600401611ccc93929190612f3a565b60405180910390fd5b50505050565b6001611ced611ce86121ee565b612217565b5f0181905550565b606060405180602001604052805f815250905090565b606060065f8381526020019081526020015f208054611d2990612f0a565b80601f0160208091040260200160405190810160405280929190818152602001828054611d5590612f0a565b8015611da05780601f10611d7757610100808354040283529160200191611da0565b820191905f5260205f20905b815481529060010190602001808311611d8357829003601f168201915b50505050509050919050565b6060611db78261139f565b505f611dc1611cf5565b90505f815111611ddf5760405180602001604052805f815250611e0a565b80611de984612220565b604051602001611dfa929190613473565b6040516020818303038152906040525b915050919050565b611e2b828260405180602001604052805f8152506122ea565b5050565b8060065f8481526020019081526020015f209081611e4d919061381d565b507ff8e1a15aba9398e019f0b49df1a4fde98ee17ae345cb5f6b5e2c27f5033e8ce782604051611e7d9190612929565b60405180910390a15050565b5f7f01ffc9a7000000000000000000000000000000000000000000000000000000007bffffffffffffffffffffffffffffffffffffffffffffffffffffffff1916827bffffffffffffffffffffffffffffffffffffffffffffffffffffffff1916149050919050565b5f60025f8381526020019081526020015f205f9054906101000a900473ffffffffffffffffffffffffffffffffffffffff169050919050565b8080611f6357505f73ffffffffffffffffffffffffffffffffffffffff168273ffffffffffffffffffffffffffffffffffffffff1614155b15612095575f611f728461139f565b90505f73ffffffffffffffffffffffffffffffffffffffff168373ffffffffffffffffffffffffffffffffffffffff1614158015611fdc57508273ffffffffffffffffffffffffffffffffffffffff168173ffffffffffffffffffffffffffffffffffffffff1614155b8015611fef5750611fed8184611192565b155b1561203157826040517fa9fbf51f000000000000000000000000000000000000000000000000000000008152600401612028919061281e565b60405180910390fd5b811561209357838573ffffffffffffffffffffffffffffffffffffffff168273ffffffffffffffffffffffffffffffffffffffff167f8c5be1e5ebec7d5bd14f71427d1e84f3dd0314c0f7b2291e5b200ac8c7c3b92560405160405180910390a45b505b8360045f8581526020019081526020015f205f6101000a81548173ffffffffffffffffffffffffffffffffffffffff021916908373ffffffffffffffffffffffffffffffffffffffff16021790555050505050565b6120f583838361230d565b6121a8575f73ffffffffffffffffffffffffffffffffffffffff168373ffffffffffffffffffffffffffffffffffffffff160361216957806040517f7e2732890000000000000000000000000000000000000000000000000000000081526004016121609190612929565b60405180910390fd5b81816040517f177e802f00000000000000000000000000000000000000000000000000000000815260040161219f9291906138ec565b60405180910390fd5b505050565b6121b56123cd565b156121ec576040517f3ee5aeb500000000000000000000000000000000000000000000000000000000815260040160405180910390fd5b565b5f7f9b779b17422d0df92223018b32b4d1fa46e071723d6817e2486d003becc55f005f1b905090565b5f819050919050565b60605f600161222e846123e9565b0190505f8167ffffffffffffffff81111561224c5761224b612a80565b5b6040519080825280601f01601f19166020018201604052801561227e5781602001600182028036833780820191505090505b5090505f82602083010190505b6001156122df578080600190039150507f3031323334353637383961626364656600000000000000000000000000000000600a86061a8153600a85816122d4576122d3613913565b5b0494505f850361228b575b819350505050919050565b6122f4838361253a565b6123086122ff61145e565b5f8585856119a5565b505050565b5f5f73ffffffffffffffffffffffffffffffffffffffff168373ffffffffffffffffffffffffffffffffffffffff16141580156123c457508273ffffffffffffffffffffffffffffffffffffffff168473ffffffffffffffffffffffffffffffffffffffff16148061238557506123848484611192565b5b806123c357508273ffffffffffffffffffffffffffffffffffffffff166123ab83611425565b73ffffffffffffffffffffffffffffffffffffffff16145b5b90509392505050565b5f60026123e06123db6121ee565b612217565b5f015414905090565b5f5f5f90507a184f03e93ff9f4daa797ed6e38ed64bf6a1f0100000000000000008310612445577a184f03e93ff9f4daa797ed6e38ed64bf6a1f010000000000000000838161243b5761243a613913565b5b0492506040810190505b6d04ee2d6d415b85acef81000000008310612482576d04ee2d6d415b85acef8100000000838161247857612477613913565b5b0492506020810190505b662386f26fc1000083106124b157662386f26fc1000083816124a7576124a6613913565b5b0492506010810190505b6305f5e10083106124da576305f5e10083816124d0576124cf613913565b5b0492506008810190505b61271083106124ff5761271083816124f5576124f4613913565b5b0492506004810190505b60648310612522576064838161251857612517613913565b5b0492506002810190505b600a8310612531576001810190505b80915050919050565b5f73ffffffffffffffffffffffffffffffffffffffff168273ffffffffffffffffffffffffffffffffffffffff16036125aa575f6040517f64a0ae920000000000000000000000000000000000000000000000000000000081526004016125a1919061281e565b60405180910390fd5b5f6125b683835f611477565b90505f73ffffffffffffffffffffffffffffffffffffffff168173ffffffffffffffffffffffffffffffffffffffff1614612628575f6040517f73c6ac6e00000000000000000000000000000000000000000000000000000000815260040161261f919061281e565b60405180910390fd5b505050565b5f604051905090565b5f5ffd5b5f5ffd5b5f7fffffffff0000000000000000000000000000000000000000000000000000000082169050919050565b6126728161263e565b811461267c575f5ffd5b50565b5f8135905061268d81612669565b92915050565b5f602082840312156126a8576126a7612636565b5b5f6126b58482850161267f565b91505092915050565b5f8115159050919050565b6126d2816126be565b82525050565b5f6020820190506126eb5f8301846126c9565b92915050565b5f81519050919050565b5f82825260208201905092915050565b8281835e5f83830152505050565b5f601f19601f8301169050919050565b5f612733826126f1565b61273d81856126fb565b935061274d81856020860161270b565b61275681612719565b840191505092915050565b5f6020820190508181035f8301526127798184612729565b905092915050565b5f819050919050565b61279381612781565b811461279d575f5ffd5b50565b5f813590506127ae8161278a565b92915050565b5f602082840312156127c9576127c8612636565b5b5f6127d6848285016127a0565b91505092915050565b5f73ffffffffffffffffffffffffffffffffffffffff82169050919050565b5f612808826127df565b9050919050565b612818816127fe565b82525050565b5f6020820190506128315f83018461280f565b92915050565b612840816127fe565b811461284a575f5ffd5b50565b5f8135905061285b81612837565b92915050565b5f5f6040838503121561287757612876612636565b5b5f6128848582860161284d565b9250506020612895858286016127a0565b9150509250929050565b5f5f5f606084860312156128b6576128b5612636565b5b5f6128c38682870161284d565b93505060206128d48682870161284d565b92505060406128e5868287016127a0565b9150509250925092565b5f6020828403121561290457612903612636565b5b5f6129118482850161284d565b91505092915050565b61292381612781565b82525050565b5f60208201905061293c5f83018461291a565b92915050565b5f5ffd5b5f5ffd5b5f5ffd5b5f5f83601f84011261296357612962612942565b5b8235905067ffffffffffffffff8111156129805761297f612946565b5b60208301915083600182028301111561299c5761299b61294a565b5b9250929050565b5f5f5f5f606085870312156129bb576129ba612636565b5b5f6129c8878288016127a0565b94505060206129d98782880161284d565b935050604085013567ffffffffffffffff8111156129fa576129f961263a565b5b612a068782880161294e565b925092505092959194509250565b612a1d816126be565b8114612a27575f5ffd5b50565b5f81359050612a3881612a14565b92915050565b5f5f60408385031215612a5457612a53612636565b5b5f612a618582860161284d565b9250506020612a7285828601612a2a565b9150509250929050565b5f5ffd5b7f4e487b71000000000000000000000000000000000000000000000000000000005f52604160045260245ffd5b612ab682612719565b810181811067ffffffffffffffff82111715612ad557612ad4612a80565b5b80604052505050565b5f612ae761262d565b9050612af38282612aad565b919050565b5f67ffffffffffffffff821115612b1257612b11612a80565b5b612b1b82612719565b9050602081019050919050565b828183375f83830152505050565b5f612b48612b4384612af8565b612ade565b905082815260208101848484011115612b6457612b63612a7c565b5b612b6f848285612b28565b509392505050565b5f82601f830112612b8b57612b8a612942565b5b8135612b9b848260208601612b36565b91505092915050565b5f5f5f5f60808587031215612bbc57612bbb612636565b5b5f612bc98782880161284d565b9450506020612bda8782880161284d565b9350506040612beb878288016127a0565b925050606085013567ffffffffffffffff811115612c0c57612c0b61263a565b5b612c1887828801612b77565b91505092959194509250565b5f5f5f5f5f5f5f60a0888a031215612c3f57612c3e612636565b5b5f612c4c8a828b0161284d565b9750506020612c5d8a828b0161284d565b9650506040612c6e8a828b016127a0565b955050606088013567ffffffffffffffff811115612c8f57612c8e61263a565b5b612c9b8a828b0161294e565b9450945050608088013567ffffffffffffffff811115612cbe57612cbd61263a565b5b612cca8a828b0161294e565b925092505092959891949750929550565b5f5f5f5f5f5f60808789031215612cf557612cf4612636565b5b5f612d0289828a0161284d565b9650506020612d1389828a016127a0565b955050604087013567ffffffffffffffff811115612d3457612d3361263a565b5b612d4089828a0161294e565b9450945050606087013567ffffffffffffffff811115612d6357612d6261263a565b5b612d6f89828a0161294e565b92509250509295509295509295565b5f5f83601f840112612d9357612d92612942565b5b8235905067ffffffffffffffff811115612db057612daf612946565b5b602083019150836001820283011115612dcc57612dcb61294a565b5b9250929050565b5f819050919050565b612de581612dd3565b8114612def575f5ffd5b50565b5f81359050612e0081612ddc565b92915050565b5f5f5f5f60608587031215612e1e57612e1d612636565b5b5f612e2b8782880161284d565b945050602085013567ffffffffffffffff811115612e4c57612e4b61263a565b5b612e5887828801612d7e565b93509350506040612e6b87828801612df2565b91505092959194509250565b5f5f60408385031215612e8d57612e8c612636565b5b5f612e9a8582860161284d565b9250506020612eab8582860161284d565b9150509250929050565b612ebe81612dd3565b82525050565b5f602082019050612ed75f830184612eb5565b92915050565b7f4e487b71000000000000000000000000000000000000000000000000000000005f52602260045260245ffd5b5f6002820490506001821680612f2157607f821691505b602082108103612f3457612f33612edd565b5b50919050565b5f606082019050612f4d5f83018661280f565b612f5a602083018561291a565b612f67604083018461280f565b949350505050565b5f604082019050612f825f83018561280f565b612f8f602083018461280f565b9392505050565b7f455243373835373a204e6f74206f776e657200000000000000000000000000005f82015250565b5f612fca6012836126fb565b9150612fd582612f96565b602082019050919050565b5f6020820190508181035f830152612ff781612fbe565b9050919050565b5f82905092915050565b5f819050815f5260205f209050919050565b5f6020601f8301049050919050565b5f82821b905092915050565b5f600883026130647fffffffffffffffffffffffffffffffffffffffffffffffffffffffffffffffff82613029565b61306e8683613029565b95508019841693508086168417925050509392505050565b5f819050919050565b5f6130a96130a461309f84612781565b613086565b612781565b9050919050565b5f819050919050565b6130c28361308f565b6130d66130ce826130b0565b848454613035565b825550505050565b5f5f905090565b6130ed6130de565b6130f88184846130b9565b505050565b5f5b8281101561311e576131135f8284016130e5565b6001810190506130ff565b505050565b601f82111561317157828211156131705761313d81613008565b6131468361301a565b61314f8561301a565b602086101561315c575f90505b80830161316b828403826130fd565b505050505b5b505050565b5f82821c905092915050565b5f6131915f1984600802613176565b1980831691505092915050565b5f6131a98383613182565b9150826002028217905092915050565b6131c38383612ffe565b67ffffffffffffffff8111156131dc576131db612a80565b5b6131e68254612f0a565b6131f1828285613123565b5f601f83116001811461321e575f841561320c578287013590505b613216858261319e565b86555061327d565b601f19841661322c86613008565b5f5b828110156132535784890135825560018201915060208501945060208101905061322e565b86831015613270578489013561326c601f891682613182565b8355505b6001600288020188555050505b50505050505050565b5f82825260208201905092915050565b5f6132a18385613286565b93506132ae838584612b28565b6132b783612719565b840190509392505050565b5f6020820190508181035f8301526132db818486613296565b90509392505050565b5f815190506132f281612a14565b92915050565b5f6020828403121561330d5761330c612636565b5b5f61331a848285016132e4565b91505092915050565b7f455243373835373a20496e76616c69642070726f6f66000000000000000000005f82015250565b5f6133576016836126fb565b915061336282613323565b602082019050919050565b5f6020820190508181035f8301526133848161334b565b9050919050565b7f455243373835373a20496e76616c696420726563697069656e740000000000005f82015250565b5f6133bf601a836126fb565b91506133ca8261338b565b602082019050919050565b5f6020820190508181035f8301526133ec816133b3565b9050919050565b5f81905092915050565b5f61340883856133f3565b9350613415838584612b28565b82840190509392505050565b5f61342d8284866133fd565b91508190509392505050565b5f81905092915050565b5f61344d826126f1565b6134578185613439565b935061346781856020860161270b565b80840191505092915050565b5f61347e8285613443565b915061348a8284613443565b91508190509392505050565b7f4e487b71000000000000000000000000000000000000000000000000000000005f52601160045260245ffd5b5f6134cd82612781565b91507fffffffffffffffffffffffffffffffffffffffffffffffffffffffffffffffff82036134ff576134fe613496565b5b600182019050919050565b5f8154905061351881612f0a565b9050919050565b5f819050815f5260205f209050919050565b5f819050815f5260205f209050919050565b601f82111561359157828211156135905761355d8161351f565b6135668361301a565b61356f8561301a565b602086101561357c575f90505b80830161358b828403826130fd565b505050505b5b505050565b8181036135a4575050613679565b6135ad8261350a565b67ffffffffffffffff8111156135c6576135c5612a80565b5b6135d08254612f0a565b6135db828285613543565b5f601f831160018114613608575f84156135f6578287015490505b613600858261319e565b865550613672565b601f19841661361687613531565b96506136218661351f565b5f5b8281101561364857848901548255600182019150600185019450602081019050613623565b868310156136655784890154613661601f891682613182565b8355505b6001600288020188555050505b5050505050505b565b5f82905092915050565b61368f838361367b565b67ffffffffffffffff8111156136a8576136a7612a80565b5b6136b28254612f0a565b6136bd828285613543565b5f601f8311600181146136ea575f84156136d8578287013590505b6136e2858261319e565b865550613749565b601f1984166136f88661351f565b5f5b8281101561371f578489013582556001820191506020850194506020810190506136fa565b8683101561373c5784890135613738601f891682613182565b8355505b6001600288020188555050505b50505050505050565b5f81519050919050565b5f61376682613752565b6137708185613286565b935061378081856020860161270b565b61378981612719565b840191505092915050565b5f6080820190506137a75f83018761280f565b6137b4602083018661280f565b6137c1604083018561291a565b81810360608301526137d3818461375c565b905095945050505050565b5f815190506137ec81612669565b92915050565b5f6020828403121561380757613806612636565b5b5f613814848285016137de565b91505092915050565b613826826126f1565b67ffffffffffffffff81111561383f5761383e612a80565b5b6138498254612f0a565b613854828285613543565b5f60209050601f831160018114613885575f8415613873578287015190505b61387d858261319e565b8655506138e4565b601f1984166138938661351f565b5f5b828110156138ba57848901518255600182019150602085019450602081019050613895565b868310156138d757848901516138d3601f891682613182565b8355505b6001600288020188555050505b505050505050565b5f6040820190506138ff5f83018561280f565b61390c602083018461291a565b9392505050565b7f4e487b71000000000000000000000000000000000000000000000000000000005f52601260045260245ffdfea26469706673582212202a7a1bcf2224929f091f5074b6f4320f3060d16a47cb394632e4d9141e3a6cc364736f6c63430008210033","linkReferences":{}},"methodIdentifiers":{"approve(address,uint256)":"095ea7b3","authorizeUsage(uint256,address,bytes)":"7b297a6f","balanceOf(address)":"70a08231","clone(address,uint256,bytes,bytes)":"ca14bee7","getApproved(uint256)":"081812fc","getEncryptedUri(uint256)":"92b41418","getMetadataHash(uint256)":"f448f871","isApprovedForAll(address,address)":"e985e9c5","mint(address,string,bytes32)":"d34047b6","name()":"06fdde03","oracle()":"7dc0d1d0","owner()":"8da5cb5b","ownerOf(uint256)":"6352211e","renounceOwnership()":"715018a6","safeTransferFrom(address,address,uint256)":"42842e0e","safeTransferFrom(address,address,uint256,bytes)":"b88d4fde","setApprovalForAll(address,bool)":"a22cb465","setOracle(address)":"7adbf973","supportsInterface(bytes4)":"01ffc9a7","symbol()":"95d89b41","tokenURI(uint256)":"c87b56dd","transfer(address,address,uint256,bytes,bytes)":"c78fed04","transferFrom(address,address,uint256)":"23b872dd","transferOwnership(address)":"f2fde38b"},"id":39}