{"abi":[{"type":"function","name":"mint","inputs":[{"name":"to","type":"address","internalType":"address"},{"name":"metadataUri","type":"string","internalType":"string"}],"outputs":[{"name":"","type":"uint256","internalType":"uint256"}],"stateMutability":"nonpayable"},{"type":"function","name":"ownerOf","inputs":[{"name":"tokenId","type":"uint256","internalType":"uint256"}],"outputs":[{"name":"","type":"address","internalType":"address"}],"stateMutability":"view"},{"type":"function","name":"tokenURI","inputs":[{"name":"tokenId","type":"uint256","internalType":"uint256"}],"outputs":[{"name":"","type":"string","internalType":"string"}],"stateMutability":"view"},{"type":"event","name":"Transfer","inputs":[{"name":"from","type":"address","indexed":true,"internalType":"address"},{"name":"to","type":"address","indexed":true,"internalType":"address"},{"name":"tokenId","type":"uint256","indexed":true,"internalType":"uint256"}],"anonymous":false}],"bytecode":{"object":"0x6080604052348015600e575f5ffd5b50610a328061001c5f395ff3fe608060405234801561000f575f5ffd5b506004361061003f575f3560e01c80636352211e14610043578063c87b56dd14610073578063d0def521146100a3575b5f5ffd5b61005d600480360381019061005891906103eb565b6100d3565b60405161006a9190610455565b60405180910390f35b61008d600480360381019061008891906103eb565b61017f565b60405161009a91906104de565b60405180910390f35b6100bd60048036038101906100b89190610589565b6102be565b6040516100ca91906105f5565b60405180910390f35b5f5f60015f8481526020019081526020015f205f9054906101000a900473ffffffffffffffffffffffffffffffffffffffff1690505f73ffffffffffffffffffffffffffffffffffffffff168173ffffffffffffffffffffffffffffffffffffffff1603610176576040517f08c379a000000000000000000000000000000000000000000000000000000000815260040161016d90610658565b60405180910390fd5b80915050919050565b60605f73ffffffffffffffffffffffffffffffffffffffff1660015f8481526020019081526020015f205f9054906101000a900473ffffffffffffffffffffffffffffffffffffffff1673ffffffffffffffffffffffffffffffffffffffff160361021f576040517f08c379a000000000000000000000000000000000000000000000000000000000815260040161021690610658565b60405180910390fd5b60025f8381526020019081526020015f20805461023b906106a3565b80601f0160208091040260200160405190810160405280929190818152602001828054610267906106a3565b80156102b25780601f10610289576101008083540402835291602001916102b2565b820191905f5260205f20905b81548152906001019060200180831161029557829003601f168201915b50505050509050919050565b5f5f5f8154809291906102d090610700565b91905055505f5f5490508460015f8381526020019081526020015f205f6101000a81548173ffffffffffffffffffffffffffffffffffffffff021916908373ffffffffffffffffffffffffffffffffffffffff160217905550838360025f8481526020019081526020015f20918261034992919061092f565b50808573ffffffffffffffffffffffffffffffffffffffff165f73ffffffffffffffffffffffffffffffffffffffff167fddf252ad1be2c89b69c2b068fc378daa952ba7f163c4a11628f55a4df523b3ef60405160405180910390a4809150509392505050565b5f5ffd5b5f5ffd5b5f819050919050565b6103ca816103b8565b81146103d4575f5ffd5b50565b5f813590506103e5816103c1565b92915050565b5f60208284031215610400576103ff6103b0565b5b5f61040d848285016103d7565b91505092915050565b5f73ffffffffffffffffffffffffffffffffffffffff82169050919050565b5f61043f82610416565b9050919050565b61044f81610435565b82525050565b5f6020820190506104685f830184610446565b92915050565b5f81519050919050565b5f82825260208201905092915050565b8281835e5f83830152505050565b5f601f19601f8301169050919050565b5f6104b08261046e565b6104ba8185610478565b93506104ca818560208601610488565b6104d381610496565b840191505092915050565b5f6020820190508181035f8301526104f681846104a6565b905092915050565b61050781610435565b8114610511575f5ffd5b50565b5f81359050610522816104fe565b92915050565b5f5ffd5b5f5ffd5b5f5ffd5b5f5f83601f84011261054957610548610528565b5b8235905067ffffffffffffffff8111156105665761056561052c565b5b60208301915083600182028301111561058257610581610530565b5b9250929050565b5f5f5f604084860312156105a05761059f6103b0565b5b5f6105ad86828701610514565b935050602084013567ffffffffffffffff8111156105ce576105cd6103b4565b5b6105da86828701610534565b92509250509250925092565b6105ef816103b8565b82525050565b5f6020820190506106085f8301846105e6565b92915050565b7f494e46543a204e6f6e6578697374656e7420746f6b656e0000000000000000005f82015250565b5f610642601783610478565b915061064d8261060e565b602082019050919050565b5f6020820190508181035f83015261066f81610636565b9050919050565b7f4e487b71000000000000000000000000000000000000000000000000000000005f52602260045260245ffd5b5f60028204905060018216806106ba57607f821691505b6020821081036106cd576106cc610676565b5b50919050565b7f4e487b71000000000000000000000000000000000000000000000000000000005f52601160045260245ffd5b5f61070a826103b8565b91507fffffffffffffffffffffffffffffffffffffffffffffffffffffffffffffffff820361073c5761073b6106d3565b5b600182019050919050565b5f82905092915050565b7f4e487b71000000000000000000000000000000000000000000000000000000005f52604160045260245ffd5b5f819050815f5260205f209050919050565b5f6020601f8301049050919050565b5f82821b905092915050565b5f600883026107da7fffffffffffffffffffffffffffffffffffffffffffffffffffffffffffffffff8261079f565b6107e4868361079f565b95508019841693508086168417925050509392505050565b5f819050919050565b5f61081f61081a610815846103b8565b6107fc565b6103b8565b9050919050565b5f819050919050565b61083883610805565b61084c61084482610826565b8484546107ab565b825550505050565b5f5f905090565b610863610854565b61086e81848461082f565b505050565b5f5b82811015610894576108895f82840161085b565b600181019050610875565b505050565b601f8211156108e757828211156108e6576108b38161077e565b6108bc83610790565b6108c585610790565b60208610156108d2575f90505b8083016108e182840382610873565b505050505b5b505050565b5f82821c905092915050565b5f6109075f19846008026108ec565b1980831691505092915050565b5f61091f83836108f8565b9150826002028217905092915050565b6109398383610747565b67ffffffffffffffff81111561095257610951610751565b5b61095c82546106a3565b610967828285610899565b5f601f831160018114610994575f8415610982578287013590505b61098c8582610914565b8655506109f3565b601f1984166109a28661077e565b5f5b828110156109c9578489013582556001820191506020850194506020810190506109a4565b868310156109e657848901356109e2601f8916826108f8565b8355505b6001600288020188555050505b5050505050505056fea2646970667358221220dd38b58aa409c79e5fe4d5973ed60b411ef7ec2cc533eab1392094773c2b747364736f6c63430008210033","linkReferences":{}},"methodIdentifiers":{"mint(address,string)":"d0def521","ownerOf(uint256)":"6352211e","tokenURI(uint256)":"c87b56dd"},"id":17}