{"abi":[{"type":"constructor","inputs":[{"name":"initialOracle","type":"address","internalType":"address"}],"stateMutability":"nonpayable"},{"type":"function","name":"approve","inputs":[{"name":"to","type":"address","internalType":"address"},{"name":"tokenId","type":"uint256","internalType":"uint256"}],"outputs":[],"stateMutability":"nonpayable"},{"type":"function","name":"authorizeUsage","inputs":[{"name":"tokenId","type":"uint256","internalType":"uint256"},{"name":"executor","type":"address","internalType":"address"},{"name":"permissions","type":"bytes","internalType":"bytes"}],"outputs":[],"stateMutability":"nonpayable"},{"type":"function","name":"balanceOf","inputs":[{"name":"owner","type":"address","internalType":"address"}],"outputs":[{"name":"","type":"uint256","internalType":"uint256"}],"stateMutability":"view"},{"type":"function","name":"clone","inputs":[{"name":"to","type":"address","internalType":"address"},{"name":"tokenId","type":"uint256","internalType":"uint256"},{"name":"sealedKey","type":"bytes","internalType":"bytes"},{"name":"proof","type":"bytes","internalType":"bytes"}],"outputs":[{"name":"","type":"uint256","internalType":"uint256"}],"stateMutability":"nonpayable"},{"type":"function","name":"getApproved","inputs":[{"name":"tokenId","type":"uint256","internalType":"uint256"}],"outputs":[{"name":"","type":"address","internalType":"address"}],"stateMutability":"view"},{"type":"function","name":"getEncryptedUri","inputs":[{"name":"tokenId","type":"uint256","internalType":"uint256"}],"outputs":[{"name":"","type":"string","internalType":"string"}],"stateMutability":"view"},{"type":"function","name":"getMetadataHash","inputs":[{"name":"tokenId","type":"uint256","internalType":"uint256"}],"outputs":[{"name":"","type":"bytes32","internalType":"bytes32"}],"stateMutability":"view"},{"type":"function","name":"isApprovedForAll","inputs":[{"name":"owner","type":"address","internalType":"address"},{"name":"operator","type":"address","internalType":"address"}],"outputs":[{"name":"","type":"bool","internalType":"bool"}],"stateMutability":"view"},{"type":"function","name":"mint","inputs":[{"name":"to","type":"address","internalType":"address"},{"name":"encryptedUri","type":"string","internalType":"string"},{"name":"metadataHash","type":"bytes32","internalType":"bytes32"}],"outputs":[{"name":"","type":"uint256","internalType":"uint256"}],"stateMutability":"nonpayable"},{"type":"function","name":"name","inputs":[],"outputs":[{"name":"","type":"string","internalType":"string"}],"stateMutability":"view"},{"type":"function","name":"oracle","inputs":[],"outputs":[{"name":"","type":"address","internalType":"address"}],"stateMutability":"view"},{"type":"function","name":"owner","inputs":[],"outputs":[{"name":"","type":"address","internalType":"address"}],"stateMutability":"view"},{"type":"function","name":"ownerOf","inputs":[{"name":"tokenId","type":"uint256","internalType":"uint256"}],"outputs":[{"name":"","type":"address","internalType":"address"}],"stateMutability":"view"},{"type":"function","name":"renounceOwnership","inputs":[],"outputs":[],"stateMutability":"nonpayable"},{"type":"function","name":"safeTransferFrom","inputs":[{"name":"from","type":"address","internalType":"address"},{"name":"to","type":"address","internalType":"address"},{"name":"tokenId","type":"uint256","internalType":"uint256"}],"outputs":[],"stateMutability":"nonpayable"},{"type":"function","name":"safeTransferFrom","inputs":[{"name":"from","type":"address","internalType":"address"},{"name":"to","type":"address","internalType":"address"},{"name":"tokenId","type":"uint256","internalType":"uint256"},{"name":"data","type":"bytes","internalType":"bytes"}],"outputs":[],"stateMutability":"nonpayable"},{"type":"function","name":"setApprovalForAll","inputs":[{"name":"operator","type":"address","internalType":"address"},{"name":"approved","type":"bool","internalType":"bool"}],"outputs":[],"stateMutability":"nonpayable"},{"type":"function","name":"setOracle","inputs":[{"name":"newOracle","type":"address","internalType":"address"}],"outputs":[],"stateMutability":"nonpayable"},{"type":"function","name":"supportsInterface","inputs":[{"name":"interfaceId","type":"bytes4","internalType":"bytes4"}],"outputs":[{"name":"","type":"bool","internalType":"bool"}],"stateMutability":"view"},{"type":"function","name":"symbol","inputs":[],"outputs":[{"name":"","type":"string","internalType":"string"}],"stateMutability":"view"},{"type":"function","name":"tokenURI","inputs":[{"name":"tokenId","type":"uint256","internalType":"uint256"}],"outputs":[{"name":"","type":"string","internalType":"string"}],"stateMutability":"view"},{"type":"function","name":"transfer","inputs":[{"name":"from","type":"address","internalType":"address"},{"name":"to","type":"address","internalType":"address"},{"name":"tokenId","type":"uint256","internalType":"uint256"},{"name":"sealedKey","type":"bytes","internalType":"bytes"},{"name":"proof","type":"bytes","internalType":"bytes"}],"outputs":[],"stateMutability":"nonpayable"},{"type":"function","name":"transferFrom","inputs":[{"name":"from","type":"address","internalType":"address"},{"name":"to","type":"address","internalType":"address"},{"name":"tokenId","type":"uint256","internalType":"uint256"}],"outputs":[],"stateMutability":"nonpayable"},{"type":"function","name":"transferOwnership","inputs":[{"name":"newOwner","type":"address","internalType":"address"}],"outputs":[],"stateMutability":"nonpayable"},{"type":"event","name":"Approval","inputs":[{"name":"owner","type":"address","indexed":true,"internalType":"address"},{"name":"approved","type":"address","indexed":true,"internalType":"address"},{"name":"tokenId","type":"uint256","indexed":true,"internalType":"uint256"}],"anonymous":false},{"type":"event","name":"ApprovalForAll","inputs":[{"name":"owner","type":"address","indexed":true,"internalType":"address"},{"name":"operator","type":"address","indexed":true,"internalType":"address"},{"name":"approved","type":"bool","indexed":false,"internalType":"bool"}],"anonymous":false},{"type":"event","name":"BatchMetadataUpdate","inputs":[{"name":"_fromTokenId","type":"uint256","indexed":false,"internalType":"uint256"},{"name":"_toTokenId","type":"uint256","indexed":false,"internalType":"uint256"}],"anonymous":false},{"type":"event","name":"MetadataUpdate","inputs":[{"name":"_tokenId","type":"uint256","indexed":false,"internalType":"uint256"}],"anonymous":false},{"type":"event","name":"MetadataUpdated","inputs":[{"name":"tokenId","type":"uint256","indexed":true,"internalType":"uint256"},{"name":"newHash","type":"bytes32","indexed":false,"internalType":"bytes32"}],"anonymous":false},{"type":"event","name":"OracleUpdated","inputs":[{"name":"oldOracle","type":"address","indexed":false,"internalType":"address"},{"name":"newOracle","type":"address","indexed":false,"internalType":"address"}],"anonymous":false},{"type":"event","name":"OwnershipTransferred","inputs":[{"name":"previousOwner","type":"address","indexed":true,"internalType":"address"},{"name":"newOwner","type":"address","indexed":true,"internalType":"address"}],"anonymous":false},{"type":"event","name":"Transfer","inputs":[{"name":"from","type":"address","indexed":true,"internalType":"address"},{"name":"to","type":"address","indexed":true,"internalType":"address"},{"name":"tokenId","type":"uint256","indexed":true,"internalType":"uint256"}],"anonymous":false},{"type":"event","name":"UsageAuthorized","inputs":[{"name":"tokenId","type":"uint256","indexed":true,"internalType":"uint256"},{"name":"executor","type":"address","indexed":true,"internalType":"address"},{"name":"permissions","type":"bytes","indexed":false,"internalType":"bytes"}],"anonymous":false},{"type":"error","name":"ERC721IncorrectOwner","inputs":[{"name":"sender","type":"address","internalType":"address"},{"name":"tokenId","type":"uint256","internalType":"uint256"},{"name":"owner","type":"address","internalType":"address"}]},{"type":"error","name":"ERC721InsufficientApproval","inputs":[{"name":"operator","type":"address","internalType":"address"},{"name":"tokenId","type":"uint256","internalType":"uint256"}]},{"type":"error","name":"ERC721InvalidApprover","inputs":[{"name":"approver","type":"address","internalType":"address"}]},{"type":"error","name":"ERC721InvalidOperator","inputs":[{"name":"operator","type":"address","internalType":"address"}]},{"type":"error","name":"ERC721InvalidOwner","inputs":[{"name":"owner","type":"address","internalType":"address"}]},{"type":"error","name":"ERC721InvalidReceiver","inputs":[{"name":"receiver","type":"address","internalType":"address"}]},{"type":"error","name":"ERC721InvalidSender","inputs":[{"name":"sender","type":"address","internalType":"address"}]},{"type":"error","name":"ERC721NonexistentToken","inputs":[{"name":"tokenId","type":"uint256","internalType":"uint256"}]},{"type":"error","name":"OwnableInvalidOwner","inputs":[{"name":"owner","type":"address","internalType":"address"}]},{"type":"error","name":"OwnableUnauthorizedAccount","inputs":[{"name":"account","type":"address","internalType":"address"}]},{"type":"error","name":"ReentrancyGuardReentrantCall","inputs":[]}],"bytecode":{"object":"0x608060405234801561000f575f5ffd5b50604051613e79380380613e79833981810160405281019061003191906102fc565b336040518060400160405280601381526020017f47726f7120416c706861204149204167656e74000000000000000000000000008152506040518060400160405280600481526020017f4741414900000000000000000000000000000000000000000000000000000000815250815f90816100ac9190610575565b5080600190816100bc9190610575565b5050505f73ffffffffffffffffffffffffffffffffffffffff168173ffffffffffffffffffffffffffffffffffffffff160361012f575f6040517f1e4fbdf70000000000000000000000000000000000000000000000000000000081526004016101269190610653565b60405180910390fd5b61013e816101a960201b60201c565b50600161015d61015261026c60201b60201c565b61029560201b60201c565b5f018190555080600c5f6101000a81548173ffffffffffffffffffffffffffffffffffffffff021916908373ffffffffffffffffffffffffffffffffffffffff1602179055505061066c565b5f60075f9054906101000a900473ffffffffffffffffffffffffffffffffffffffff1690508160075f6101000a81548173ffffffffffffffffffffffffffffffffffffffff021916908373ffffffffffffffffffffffffffffffffffffffff1602179055508173ffffffffffffffffffffffffffffffffffffffff168173ffffffffffffffffffffffffffffffffffffffff167f8be0079c531659141344cd1fd0a4f28419497f9722a3daafe3b4186f6b6457e060405160405180910390a35050565b5f7f9b779b17422d0df92223018b32b4d1fa46e071723d6817e2486d003becc55f005f1b905090565b5f819050919050565b5f5ffd5b5f73ffffffffffffffffffffffffffffffffffffffff82169050919050565b5f6102cb826102a2565b9050919050565b6102db816102c1565b81146102e5575f5ffd5b50565b5f815190506102f6816102d2565b92915050565b5f602082840312156103115761031061029e565b5b5f61031e848285016102e8565b91505092915050565b5f81519050919050565b7f4e487b71000000000000000000000000000000000000000000000000000000005f52604160045260245ffd5b7f4e487b71000000000000000000000000000000000000000000000000000000005f52602260045260245ffd5b5f60028204905060018216806103a257607f821691505b6020821081036103b5576103b461035e565b5b50919050565b5f819050815f5260205f209050919050565b5f6020601f8301049050919050565b5f82821b905092915050565b5f600883026104177fffffffffffffffffffffffffffffffffffffffffffffffffffffffffffffffff826103dc565b61042186836103dc565b95508019841693508086168417925050509392505050565b5f819050919050565b5f819050919050565b5f61046561046061045b84610439565b610442565b610439565b9050919050565b5f819050919050565b61047e8361044b565b61049261048a8261046c565b8484546103e8565b825550505050565b5f5f905090565b6104a961049a565b6104b4818484610475565b505050565b5f5b828110156104da576104cf5f8284016104a1565b6001810190506104bb565b505050565b601f82111561052d578282111561052c576104f9816103bb565b610502836103cd565b61050b856103cd565b6020861015610518575f90505b808301610527828403826104b9565b505050505b5b505050565b5f82821c905092915050565b5f61054d5f1984600802610532565b1980831691505092915050565b5f610565838361053e565b9150826002028217905092915050565b61057e82610327565b67ffffffffffffffff81111561059757610596610331565b5b6105a1825461038b565b6105ac8282856104df565b5f60209050601f8311600181146105dd575f84156105cb578287015190505b6105d5858261055a565b86555061063c565b601f1984166105eb866103bb565b5f5b82811015610612578489015182556001820191506020850194506020810190506105ed565b8683101561062f578489015161062b601f89168261053e565b8355505b6001600288020188555050505b505050505050565b61064d816102c1565b82525050565b5f6020820190506106665f830184610644565b92915050565b613800806106795f395ff3fe608060405234801561000f575f5ffd5b5060043610610156575f3560e01c80638da5cb5b116100c1578063c87b56dd1161007a578063c87b56dd146103ac578063ca14bee7146103dc578063d34047b61461040c578063e985e9c51461043c578063f2fde38b1461046c578063f448f8711461048857610156565b80638da5cb5b146102ec57806392b414181461030a57806395d89b411461033a578063a22cb46514610358578063b88d4fde14610374578063c78fed041461039057610156565b80636352211e116101135780636352211e1461022c57806370a082311461025c578063715018a61461028c5780637adbf973146102965780637b297a6f146102b25780637dc0d1d0146102ce57610156565b806301ffc9a71461015a57806306fdde031461018a578063081812fc146101a8578063095ea7b3146101d857806323b872dd146101f457806342842e0e14610210575b5f5ffd5b610174600480360381019061016f91906125ec565b6104b8565b6040516101819190612631565b60405180910390f35b610192610518565b60405161019f91906126ba565b60405180910390f35b6101c260048036038101906101bd919061270d565b6105a7565b6040516101cf9190612777565b60405180910390f35b6101f260048036038101906101ed91906127ba565b6105c2565b005b61020e600480360381019061020991906127f8565b6105d8565b005b61022a600480360381019061022591906127f8565b6106d7565b005b6102466004803603810190610241919061270d565b6106f6565b6040516102539190612777565b60405180910390f35b61027660048036038101906102719190612848565b610707565b6040516102839190612882565b60405180910390f35b6102946107bd565b005b6102b060048036038101906102ab9190612848565b6107d0565b005b6102cc60048036038101906102c791906128fc565b610875565b005b6102d661099e565b6040516102e39190612777565b60405180910390f35b6102f46109c3565b6040516103019190612777565b60405180910390f35b610324600480360381019061031f919061270d565b6109eb565b60405161033191906126ba565b60405180910390f35b610342610a8c565b60405161034f91906126ba565b60405180910390f35b610372600480360381019061036d9190612997565b610b1c565b005b61038e60048036038101906103899190612afd565b610b32565b005b6103aa60048036038101906103a59190612b7d565b610b57565b005b6103c660048036038101906103c1919061270d565b610e08565b6040516103d391906126ba565b60405180910390f35b6103f660048036038101906103f19190612c34565b610e84565b6040516104039190612882565b60405180910390f35b61042660048036038101906104219190612d5f565b6110a2565b6040516104339190612882565b60405180910390f35b61045660048036038101906104519190612dd0565b611145565b6040516104639190612631565b60405180910390f35b61048660048036038101906104819190612848565b6111d3565b005b6104a2600480360381019061049d919061270d565b611257565b6040516104af9190612e1d565b60405180910390f35b5f634906490660e01b7bffffffffffffffffffffffffffffffffffffffffffffffffffffffff1916827bffffffffffffffffffffffffffffffffffffffffffffffffffffffff19161480610511575061051082611271565b5b9050919050565b60605f805461052690612e63565b80601f016020809104026020016040519081016040528092919081815260200182805461055290612e63565b801561059d5780601f106105745761010080835404028352916020019161059d565b820191905f5260205f20905b81548152906001019060200180831161058057829003601f168201915b5050505050905090565b5f6105b182611352565b506105bb826113d8565b9050919050565b6105d482826105cf611411565b611418565b5050565b5f73ffffffffffffffffffffffffffffffffffffffff168273ffffffffffffffffffffffffffffffffffffffff1603610648575f6040517f64a0ae9200000000000000000000000000000000000000000000000000000000815260040161063f9190612777565b60405180910390fd5b5f61065b8383610656611411565b61142a565b90508373ffffffffffffffffffffffffffffffffffffffff168173ffffffffffffffffffffffffffffffffffffffff16146106d1578382826040517f64283d7b0000000000000000000000000000000000000000000000000000000081526004016106c893929190612e93565b60405180910390fd5b50505050565b6106f183838360405180602001604052805f815250610b32565b505050565b5f61070082611352565b9050919050565b5f5f73ffffffffffffffffffffffffffffffffffffffff168273ffffffffffffffffffffffffffffffffffffffff1603610778575f6040517f89c62b6400000000000000000000000000000000000000000000000000000000815260040161076f9190612777565b60405180910390fd5b60035f8373ffffffffffffffffffffffffffffffffffffffff1673ffffffffffffffffffffffffffffffffffffffff1681526020019081526020015f20549050919050565b6107c5611635565b6107ce5f6116bc565b565b6107d8611635565b7f078c3b417dadf69374a59793b829c52001247130433427049317bde56607b1b7600c5f9054906101000a900473ffffffffffffffffffffffffffffffffffffffff168260405161082a929190612ec8565b60405180910390a180600c5f6101000a81548173ffffffffffffffffffffffffffffffffffffffff021916908373ffffffffffffffffffffffffffffffffffffffff16021790555050565b3373ffffffffffffffffffffffffffffffffffffffff16610895856106f6565b73ffffffffffffffffffffffffffffffffffffffff16146108eb576040517f08c379a00000000000000000000000000000000000000000000000000000000081526004016108e290612f39565b60405180910390fd5b8181600b5f8781526020019081526020015f205f8673ffffffffffffffffffffffffffffffffffffffff1673ffffffffffffffffffffffffffffffffffffffff1681526020019081526020015f209182610946929190613112565b508273ffffffffffffffffffffffffffffffffffffffff16847fe2008fce6589f5fc55532de67b4d5ab3eddc8f8703486df3baeeef14f33242bd848460405161099092919061321b565b60405180910390a350505050565b600c5f9054906101000a900473ffffffffffffffffffffffffffffffffffffffff1681565b5f60075f9054906101000a900473ffffffffffffffffffffffffffffffffffffffff16905090565b6060600a5f8381526020019081526020015f208054610a0990612e63565b80601f0160208091040260200160405190810160405280929190818152602001828054610a3590612e63565b8015610a805780601f10610a5757610100808354040283529160200191610a80565b820191905f5260205f20905b815481529060010190602001808311610a6357829003601f168201915b50505050509050919050565b606060018054610a9b90612e63565b80601f0160208091040260200160405190810160405280929190818152602001828054610ac790612e63565b8015610b125780601f10610ae957610100808354040283529160200191610b12565b820191905f5260205f20905b815481529060010190602001808311610af557829003601f168201915b5050505050905090565b610b2e610b27611411565b838361177f565b5050565b610b3d8484846105d8565b610b51610b48611411565b85858585611958565b50505050565b610b5f611b04565b81815f73ffffffffffffffffffffffffffffffffffffffff16600c5f9054906101000a900473ffffffffffffffffffffffffffffffffffffffff1673ffffffffffffffffffffffffffffffffffffffff1614610c9057600c5f9054906101000a900473ffffffffffffffffffffffffffffffffffffffff1673ffffffffffffffffffffffffffffffffffffffff166355c265fe83836040518363ffffffff1660e01b8152600401610c1192919061321b565b602060405180830381865afa158015610c2c573d5f5f3e3d5ffd5b505050506040513d601f19601f82011682018060405250810190610c509190613251565b610c8f576040517f08c379a0000000000000000000000000000000000000000000000000000000008152600401610c86906132c6565b60405180910390fd5b5b8873ffffffffffffffffffffffffffffffffffffffff16610cb0886106f6565b73ffffffffffffffffffffffffffffffffffffffff1614610d06576040517f08c379a0000000000000000000000000000000000000000000000000000000008152600401610cfd90612f39565b60405180910390fd5b5f73ffffffffffffffffffffffffffffffffffffffff168873ffffffffffffffffffffffffffffffffffffffff1603610d74576040517f08c379a0000000000000000000000000000000000000000000000000000000008152600401610d6b9061332e565b60405180910390fd5b8585604051610d8492919061337a565b604051809103902060095f8981526020019081526020015f2081905550610dac898989611b26565b867f9c06c04824dfb4ebf41804d51120c24a2ab63d6230efe7b7bc5a199f837dd3ad60095f8a81526020019081526020015f2054604051610ded9190612e1d565b60405180910390a25050610dff611c8e565b50505050505050565b6060610e1382611352565b505f610e1d611ca8565b90505f610e2984611cbe565b90505f825103610e3d578092505050610e7f565b5f81511115610e71578181604051602001610e599291906133cc565b60405160208183030381529060405292505050610e7f565b610e7a84611d5f565b925050505b919050565b5f610e8d611b04565b82825f73ffffffffffffffffffffffffffffffffffffffff16600c5f9054906101000a900473ffffffffffffffffffffffffffffffffffffffff1673ffffffffffffffffffffffffffffffffffffffff1614610fbe57600c5f9054906101000a900473ffffffffffffffffffffffffffffffffffffffff1673ffffffffffffffffffffffffffffffffffffffff166355c265fe83836040518363ffffffff1660e01b8152600401610f3f92919061321b565b602060405180830381865afa158015610f5a573d5f5f3e3d5ffd5b505050506040513d601f19601f82011682018060405250810190610f7e9190613251565b610fbd576040517f08c379a0000000000000000000000000000000000000000000000000000000008152600401610fb4906132c6565b60405180910390fd5b5b60085f815480929190610fd09061341c565b91905055505f6008549050610fe58a82611dc5565b600a5f8a81526020019081526020015f20600a5f8381526020019081526020015f20908161101391906134ef565b50878760405161102492919061337a565b604051809103902060095f8381526020019081526020015f2081905550807f9c06c04824dfb4ebf41804d51120c24a2ab63d6230efe7b7bc5a199f837dd3ad60095f8481526020019081526020015f20546040516110829190612e1d565b60405180910390a2809350505050611098611c8e565b9695505050505050565b5f60085f8154809291906110b59061341c565b91905055505f60085490506110ca8682611dc5565b8484600a5f8481526020019081526020015f2091826110ea9291906135de565b508260095f8381526020019081526020015f2081905550807f9c06c04824dfb4ebf41804d51120c24a2ab63d6230efe7b7bc5a199f837dd3ad846040516111319190612e1d565b60405180910390a280915050949350505050565b5f60055f8473ffffffffffffffffffffffffffffffffffffffff1673ffffffffffffffffffffffffffffffffffffffff1681526020019081526020015f205f8373ffffffffffffffffffffffffffffffffffffffff1673ffffffffffffffffffffffffffffffffffffffff1681526020019081526020015f205f9054906101000a900460ff16905092915050565b6111db611635565b5f73ffffffffffffffffffffffffffffffffffffffff168173ffffffffffffffffffffffffffffffffffffffff160361124b575f6040517f1e4fbdf70000000000000000000000000000000000000000000000000000000081526004016112429190612777565b60405180910390fd5b611254816116bc565b50565b5f60095f8381526020019081526020015f20549050919050565b5f7f80ac58cd000000000000000000000000000000000000000000000000000000007bffffffffffffffffffffffffffffffffffffffffffffffffffffffff1916827bffffffffffffffffffffffffffffffffffffffffffffffffffffffff1916148061133b57507f5b5e139f000000000000000000000000000000000000000000000000000000007bffffffffffffffffffffffffffffffffffffffffffffffffffffffff1916827bffffffffffffffffffffffffffffffffffffffffffffffffffffffff1916145b8061134b575061134a82611de2565b5b9050919050565b5f5f61135d83611e4b565b90505f73ffffffffffffffffffffffffffffffffffffffff168173ffffffffffffffffffffffffffffffffffffffff16036113cf57826040517f7e2732890000000000000000000000000000000000000000000000000000000081526004016113c69190612882565b60405180910390fd5b80915050919050565b5f60045f8381526020019081526020015f205f9054906101000a900473ffffffffffffffffffffffffffffffffffffffff169050919050565b5f33905090565b6114258383836001611e84565b505050565b5f5f61143584611e4b565b90505f73ffffffffffffffffffffffffffffffffffffffff168373ffffffffffffffffffffffffffffffffffffffff161461147657611475818486612043565b5b5f73ffffffffffffffffffffffffffffffffffffffff168173ffffffffffffffffffffffffffffffffffffffff1614611501576114b55f855f5f611e84565b600160035f8373ffffffffffffffffffffffffffffffffffffffff1673ffffffffffffffffffffffffffffffffffffffff1681526020019081526020015f205f82825403925050819055505b5f73ffffffffffffffffffffffffffffffffffffffff168573ffffffffffffffffffffffffffffffffffffffff161461158057600160035f8773ffffffffffffffffffffffffffffffffffffffff1673ffffffffffffffffffffffffffffffffffffffff1681526020019081526020015f205f82825401925050819055505b8460025f8681526020019081526020015f205f6101000a81548173ffffffffffffffffffffffffffffffffffffffff021916908373ffffffffffffffffffffffffffffffffffffffff160217905550838573ffffffffffffffffffffffffffffffffffffffff168273ffffffffffffffffffffffffffffffffffffffff167fddf252ad1be2c89b69c2b068fc378daa952ba7f163c4a11628f55a4df523b3ef60405160405180910390a4809150509392505050565b61163d611411565b73ffffffffffffffffffffffffffffffffffffffff1661165b6109c3565b73ffffffffffffffffffffffffffffffffffffffff16146116ba5761167e611411565b6040517f118cdaa70000000000000000000000000000000000000000000000000000000081526004016116b19190612777565b60405180910390fd5b565b5f60075f9054906101000a900473ffffffffffffffffffffffffffffffffffffffff1690508160075f6101000a81548173ffffffffffffffffffffffffffffffffffffffff021916908373ffffffffffffffffffffffffffffffffffffffff1602179055508173ffffffffffffffffffffffffffffffffffffffff168173ffffffffffffffffffffffffffffffffffffffff167f8be0079c531659141344cd1fd0a4f28419497f9722a3daafe3b4186f6b6457e060405160405180910390a35050565b5f73ffffffffffffffffffffffffffffffffffffffff168373ffffffffffffffffffffffffffffffffffffffff16036117ef575f6040517fa9fbf51f0000000000000000000000000000000000000000000000000000000081526004016117e69190612777565b60405180910390fd5b5f73ffffffffffffffffffffffffffffffffffffffff168273ffffffffffffffffffffffffffffffffffffffff160361185f57816040517f5b08ba180000000000000000000000000000000000000000000000000000000081526004016118569190612777565b60405180910390fd5b8060055f8573ffffffffffffffffffffffffffffffffffffffff1673ffffffffffffffffffffffffffffffffffffffff1681526020019081526020015f205f8473ffffffffffffffffffffffffffffffffffffffff1673ffffffffffffffffffffffffffffffffffffffff1681526020019081526020015f205f6101000a81548160ff0219169083151502179055508173ffffffffffffffffffffffffffffffffffffffff168373ffffffffffffffffffffffffffffffffffffffff167f17307eab39ab6107e8899845ad3d59bd9653f200f220920489ca2b5937696c318360405161194b9190612631565b60405180910390a3505050565b5f8373ffffffffffffffffffffffffffffffffffffffff163b1115611afd578273ffffffffffffffffffffffffffffffffffffffff1663150b7a02868685856040518563ffffffff1660e01b81526004016119b694939291906136ed565b6020604051808303815f875af19250505080156119f157506040513d601f19601f820116820180604052508101906119ee919061374b565b60015b611a72573d805f8114611a1f576040519150601f19603f3d011682016040523d82523d5f602084013e611a24565b606091505b505f815103611a6a57836040517f64a0ae92000000000000000000000000000000000000000000000000000000008152600401611a619190612777565b60405180910390fd5b805160208201fd5b63150b7a0260e01b7bffffffffffffffffffffffffffffffffffffffffffffffffffffffff1916817bffffffffffffffffffffffffffffffffffffffffffffffffffffffff191614611afb57836040517f64a0ae92000000000000000000000000000000000000000000000000000000008152600401611af29190612777565b60405180910390fd5b505b5050505050565b611b0c612106565b6002611b1e611b19612147565b612170565b5f0181905550565b5f73ffffffffffffffffffffffffffffffffffffffff168273ffffffffffffffffffffffffffffffffffffffff1603611b96575f6040517f64a0ae92000000000000000000000000000000000000000000000000000000008152600401611b8d9190612777565b60405180910390fd5b5f611ba283835f61142a565b90505f73ffffffffffffffffffffffffffffffffffffffff168173ffffffffffffffffffffffffffffffffffffffff1603611c1457816040517f7e273289000000000000000000000000000000000000000000000000000000008152600401611c0b9190612882565b60405180910390fd5b8373ffffffffffffffffffffffffffffffffffffffff168173ffffffffffffffffffffffffffffffffffffffff1614611c88578382826040517f64283d7b000000000000000000000000000000000000000000000000000000008152600401611c7f93929190612e93565b60405180910390fd5b50505050565b6001611ca0611c9b612147565b612170565b5f0181905550565b606060405180602001604052805f815250905090565b606060065f8381526020019081526020015f208054611cdc90612e63565b80601f0160208091040260200160405190810160405280929190818152602001828054611d0890612e63565b8015611d535780601f10611d2a57610100808354040283529160200191611d53565b820191905f5260205f20905b815481529060010190602001808311611d3657829003601f168201915b50505050509050919050565b6060611d6a82611352565b505f611d74611ca8565b90505f815111611d925760405180602001604052805f815250611dbd565b80611d9c84612179565b604051602001611dad9291906133cc565b6040516020818303038152906040525b915050919050565b611dde828260405180602001604052805f815250612243565b5050565b5f7f01ffc9a7000000000000000000000000000000000000000000000000000000007bffffffffffffffffffffffffffffffffffffffffffffffffffffffff1916827bffffffffffffffffffffffffffffffffffffffffffffffffffffffff1916149050919050565b5f60025f8381526020019081526020015f205f9054906101000a900473ffffffffffffffffffffffffffffffffffffffff169050919050565b8080611ebc57505f73ffffffffffffffffffffffffffffffffffffffff168273ffffffffffffffffffffffffffffffffffffffff1614155b15611fee575f611ecb84611352565b90505f73ffffffffffffffffffffffffffffffffffffffff168373ffffffffffffffffffffffffffffffffffffffff1614158015611f3557508273ffffffffffffffffffffffffffffffffffffffff168173ffffffffffffffffffffffffffffffffffffffff1614155b8015611f485750611f468184611145565b155b15611f8a57826040517fa9fbf51f000000000000000000000000000000000000000000000000000000008152600401611f819190612777565b60405180910390fd5b8115611fec57838573ffffffffffffffffffffffffffffffffffffffff168273ffffffffffffffffffffffffffffffffffffffff167f8c5be1e5ebec7d5bd14f71427d1e84f3dd0314c0f7b2291e5b200ac8c7c3b92560405160405180910390a45b505b8360045f8581526020019081526020015f205f6101000a81548173ffffffffffffffffffffffffffffffffffffffff021916908373ffffffffffffffffffffffffffffffffffffffff16021790555050505050565b61204e838383612266565b612101575f73ffffffffffffffffffffffffffffffffffffffff168373ffffffffffffffffffffffffffffffffffffffff16036120c257806040517f7e2732890000000000000000000000000000000000000000000000000000000081526004016120b99190612882565b60405180910390fd5b81816040517f177e802f0000000000000000000000000000000000000000000000000000000081526004016120f8929190613776565b60405180910390fd5b505050565b61210e612326565b15612145576040517f3ee5aeb500000000000000000000000000000000000000000000000000000000815260040160405180910390fd5b565b5f7f9b779b17422d0df92223018b32b4d1fa46e071723d6817e2486d003becc55f005f1b905090565b5f819050919050565b60605f600161218784612342565b0190505f8167ffffffffffffffff8111156121a5576121a46129d9565b5b6040519080825280601f01601f1916602001820160405280156121d75781602001600182028036833780820191505090505b5090505f82602083010190505b600115612238578080600190039150507f3031323334353637383961626364656600000000000000000000000000000000600a86061a8153600a858161222d5761222c61379d565b5b0494505f85036121e4575b819350505050919050565b61224d8383612493565b612261612258611411565b5f858585611958565b505050565b5f5f73ffffffffffffffffffffffffffffffffffffffff168373ffffffffffffffffffffffffffffffffffffffff161415801561231d57508273ffffffffffffffffffffffffffffffffffffffff168473ffffffffffffffffffffffffffffffffffffffff1614806122de57506122dd8484611145565b5b8061231c57508273ffffffffffffffffffffffffffffffffffffffff16612304836113d8565b73ffffffffffffffffffffffffffffffffffffffff16145b5b90509392505050565b5f6002612339612334612147565b612170565b5f015414905090565b5f5f5f90507a184f03e93ff9f4daa797ed6e38ed64bf6a1f010000000000000000831061239e577a184f03e93ff9f4daa797ed6e38ed64bf6a1f01000000000000000083816123945761239361379d565b5b0492506040810190505b6d04ee2d6d415b85acef810000000083106123db576d04ee2d6d415b85acef810000000083816123d1576123d061379d565b5b0492506020810190505b662386f26fc10000831061240a57662386f26fc100008381612400576123ff61379d565b5b0492506010810190505b6305f5e1008310612433576305f5e10083816124295761242861379d565b5b0492506008810190505b612710831061245857612710838161244e5761244d61379d565b5b0492506004810190505b6064831061247b57606483816124715761247061379d565b5b0492506002810190505b600a831061248a576001810190505b80915050919050565b5f73ffffffffffffffffffffffffffffffffffffffff168273ffffffffffffffffffffffffffffffffffffffff1603612503575f6040517f64a0ae920000000000000000000000000000000000000000000000000000000081526004016124fa9190612777565b60405180910390fd5b5f61250f83835f61142a565b90505f73ffffffffffffffffffffffffffffffffffffffff168173ffffffffffffffffffffffffffffffffffffffff1614612581575f6040517f73c6ac6e0000000000000000000000000000000000000000000000000000000081526004016125789190612777565b60405180910390fd5b505050565b5f604051905090565b5f5ffd5b5f5ffd5b5f7fffffffff0000000000000000000000000000000000000000000000000000000082169050919050565b6125cb81612597565b81146125d5575f5ffd5b50565b5f813590506125e6816125c2565b92915050565b5f602082840312156126015761260061258f565b5b5f61260e848285016125d8565b91505092915050565b5f8115159050919050565b61262b81612617565b82525050565b5f6020820190506126445f830184612622565b92915050565b5f81519050919050565b5f82825260208201905092915050565b8281835e5f83830152505050565b5f601f19601f8301169050919050565b5f61268c8261264a565b6126968185612654565b93506126a6818560208601612664565b6126af81612672565b840191505092915050565b5f6020820190508181035f8301526126d28184612682565b905092915050565b5f819050919050565b6126ec816126da565b81146126f6575f5ffd5b50565b5f81359050612707816126e3565b92915050565b5f602082840312156127225761272161258f565b5b5f61272f848285016126f9565b91505092915050565b5f73ffffffffffffffffffffffffffffffffffffffff82169050919050565b5f61276182612738565b9050919050565b61277181612757565b82525050565b5f60208201905061278a5f830184612768565b92915050565b61279981612757565b81146127a3575f5ffd5b50565b5f813590506127b481612790565b92915050565b5f5f604083850312156127d0576127cf61258f565b5b5f6127dd858286016127a6565b92505060206127ee858286016126f9565b9150509250929050565b5f5f5f6060848603121561280f5761280e61258f565b5b5f61281c868287016127a6565b935050602061282d868287016127a6565b925050604061283e868287016126f9565b9150509250925092565b5f6020828403121561285d5761285c61258f565b5b5f61286a848285016127a6565b91505092915050565b61287c816126da565b82525050565b5f6020820190506128955f830184612873565b92915050565b5f5ffd5b5f5ffd5b5f5ffd5b5f5f83601f8401126128bc576128bb61289b565b5b8235905067ffffffffffffffff8111156128d9576128d861289f565b5b6020830191508360018202830111156128f5576128f46128a3565b5b9250929050565b5f5f5f5f606085870312156129145761291361258f565b5b5f612921878288016126f9565b9450506020612932878288016127a6565b935050604085013567ffffffffffffffff81111561295357612952612593565b5b61295f878288016128a7565b925092505092959194509250565b61297681612617565b8114612980575f5ffd5b50565b5f813590506129918161296d565b92915050565b5f5f604083850312156129ad576129ac61258f565b5b5f6129ba858286016127a6565b92505060206129cb85828601612983565b9150509250929050565b5f5ffd5b7f4e487b71000000000000000000000000000000000000000000000000000000005f52604160045260245ffd5b612a0f82612672565b810181811067ffffffffffffffff82111715612a2e57612a2d6129d9565b5b80604052505050565b5f612a40612586565b9050612a4c8282612a06565b919050565b5f67ffffffffffffffff821115612a6b57612a6a6129d9565b5b612a7482612672565b9050602081019050919050565b828183375f83830152505050565b5f612aa1612a9c84612a51565b612a37565b905082815260208101848484011115612abd57612abc6129d5565b5b612ac8848285612a81565b509392505050565b5f82601f830112612ae457612ae361289b565b5b8135612af4848260208601612a8f565b91505092915050565b5f5f5f5f60808587031215612b1557612b1461258f565b5b5f612b22878288016127a6565b9450506020612b33878288016127a6565b9350506040612b44878288016126f9565b925050606085013567ffffffffffffffff811115612b6557612b64612593565b5b612b7187828801612ad0565b91505092959194509250565b5f5f5f5f5f5f5f60a0888a031215612b9857612b9761258f565b5b5f612ba58a828b016127a6565b9750506020612bb68a828b016127a6565b9650506040612bc78a828b016126f9565b955050606088013567ffffffffffffffff811115612be857612be7612593565b5b612bf48a828b016128a7565b9450945050608088013567ffffffffffffffff811115612c1757612c16612593565b5b612c238a828b016128a7565b925092505092959891949750929550565b5f5f5f5f5f5f60808789031215612c4e57612c4d61258f565b5b5f612c5b89828a016127a6565b9650506020612c6c89828a016126f9565b955050604087013567ffffffffffffffff811115612c8d57612c8c612593565b5b612c9989828a016128a7565b9450945050606087013567ffffffffffffffff811115612cbc57612cbb612593565b5b612cc889828a016128a7565b92509250509295509295509295565b5f5f83601f840112612cec57612ceb61289b565b5b8235905067ffffffffffffffff811115612d0957612d0861289f565b5b602083019150836001820283011115612d2557612d246128a3565b5b9250929050565b5f819050919050565b612d3e81612d2c565b8114612d48575f5ffd5b50565b5f81359050612d5981612d35565b92915050565b5f5f5f5f60608587031215612d7757612d7661258f565b5b5f612d84878288016127a6565b945050602085013567ffffffffffffffff811115612da557612da4612593565b5b612db187828801612cd7565b93509350506040612dc487828801612d4b565b91505092959194509250565b5f5f60408385031215612de657612de561258f565b5b5f612df3858286016127a6565b9250506020612e04858286016127a6565b9150509250929050565b612e1781612d2c565b82525050565b5f602082019050612e305f830184612e0e565b92915050565b7f4e487b71000000000000000000000000000000000000000000000000000000005f52602260045260245ffd5b5f6002820490506001821680612e7a57607f821691505b602082108103612e8d57612e8c612e36565b5b50919050565b5f606082019050612ea65f830186612768565b612eb36020830185612873565b612ec06040830184612768565b949350505050565b5f604082019050612edb5f830185612768565b612ee86020830184612768565b9392505050565b7f455243373835373a204e6f74206f776e657200000000000000000000000000005f82015250565b5f612f23601283612654565b9150612f2e82612eef565b602082019050919050565b5f6020820190508181035f830152612f5081612f17565b9050919050565b5f82905092915050565b5f819050815f5260205f209050919050565b5f6020601f8301049050919050565b5f82821b905092915050565b5f60088302612fbd7fffffffffffffffffffffffffffffffffffffffffffffffffffffffffffffffff82612f82565b612fc78683612f82565b95508019841693508086168417925050509392505050565b5f819050919050565b5f613002612ffd612ff8846126da565b612fdf565b6126da565b9050919050565b5f819050919050565b61301b83612fe8565b61302f61302782613009565b848454612f8e565b825550505050565b5f5f905090565b613046613037565b613051818484613012565b505050565b5f5b828110156130775761306c5f82840161303e565b600181019050613058565b505050565b601f8211156130ca57828211156130c95761309681612f61565b61309f83612f73565b6130a885612f73565b60208610156130b5575f90505b8083016130c482840382613056565b505050505b5b505050565b5f82821c905092915050565b5f6130ea5f19846008026130cf565b1980831691505092915050565b5f61310283836130db565b9150826002028217905092915050565b61311c8383612f57565b67ffffffffffffffff811115613135576131346129d9565b5b61313f8254612e63565b61314a82828561307c565b5f601f831160018114613177575f8415613165578287013590505b61316f85826130f7565b8655506131d6565b601f19841661318586612f61565b5f5b828110156131ac57848901358255600182019150602085019450602081019050613187565b868310156131c957848901356131c5601f8916826130db565b8355505b6001600288020188555050505b50505050505050565b5f82825260208201905092915050565b5f6131fa83856131df565b9350613207838584612a81565b61321083612672565b840190509392505050565b5f6020820190508181035f8301526132348184866131ef565b90509392505050565b5f8151905061324b8161296d565b92915050565b5f602082840312156132665761326561258f565b5b5f6132738482850161323d565b91505092915050565b7f455243373835373a20496e76616c69642070726f6f66000000000000000000005f82015250565b5f6132b0601683612654565b91506132bb8261327c565b602082019050919050565b5f6020820190508181035f8301526132dd816132a4565b9050919050565b7f455243373835373a20496e76616c696420726563697069656e740000000000005f82015250565b5f613318601a83612654565b9150613323826132e4565b602082019050919050565b5f6020820190508181035f8301526133458161330c565b9050919050565b5f81905092915050565b5f613361838561334c565b935061336e838584612a81565b82840190509392505050565b5f613386828486613356565b91508190509392505050565b5f81905092915050565b5f6133a68261264a565b6133b08185613392565b93506133c0818560208601612664565b80840191505092915050565b5f6133d7828561339c565b91506133e3828461339c565b91508190509392505050565b7f4e487b71000000000000000000000000000000000000000000000000000000005f52601160045260245ffd5b5f613426826126da565b91507fffffffffffffffffffffffffffffffffffffffffffffffffffffffffffffffff8203613458576134576133ef565b5b600182019050919050565b5f8154905061347181612e63565b9050919050565b5f819050815f5260205f209050919050565b5f819050815f5260205f209050919050565b601f8211156134ea57828211156134e9576134b681613478565b6134bf83612f73565b6134c885612f73565b60208610156134d5575f90505b8083016134e482840382613056565b505050505b5b505050565b8181036134fd5750506135d2565b61350682613463565b67ffffffffffffffff81111561351f5761351e6129d9565b5b6135298254612e63565b61353482828561349c565b5f601f831160018114613561575f841561354f578287015490505b61355985826130f7565b8655506135cb565b601f19841661356f8761348a565b965061357a86613478565b5f5b828110156135a15784890154825560018201915060018501945060208101905061357c565b868310156135be57848901546135ba601f8916826130db565b8355505b6001600288020188555050505b5050505050505b565b5f82905092915050565b6135e883836135d4565b67ffffffffffffffff811115613601576136006129d9565b5b61360b8254612e63565b61361682828561349c565b5f601f831160018114613643575f8415613631578287013590505b61363b85826130f7565b8655506136a2565b601f19841661365186613478565b5f5b8281101561367857848901358255600182019150602085019450602081019050613653565b868310156136955784890135613691601f8916826130db565b8355505b6001600288020188555050505b50505050505050565b5f81519050919050565b5f6136bf826136ab565b6136c981856131df565b93506136d9818560208601612664565b6136e281612672565b840191505092915050565b5f6080820190506137005f830187612768565b61370d6020830186612768565b61371a6040830185612873565b818103606083015261372c81846136b5565b905095945050505050565b5f81519050613745816125c2565b92915050565b5f602082840312156137605761375f61258f565b5b5f61376d84828501613737565b91505092915050565b5f6040820190506137895f830185612768565b6137966020830184612873565b9392505050565b7f4e487b71000000000000000000000000000000000000000000000000000000005f52601260045260245ffdfea26469706673582212207ef53b73e7d3e91f858c36372af8ee3f2ad62c2a89e478defd0676bddc08187564736f6c63430008210033","linkReferences":{}},"methodIdentifiers":{"approve(address,uint256)":"095ea7b3","authorizeUsage(uint256,address,bytes)":"7b297a6f","balanceOf(address)":"70a08231","clone(address,uint256,bytes,bytes)":"ca14bee7","getApproved(uint256)":"081812fc","getEncryptedUri(uint256)":"92b41418","getMetadataHash(uint256)":"f448f871","isApprovedForAll(address,address)":"e985e9c5","mint(address,string,bytes32)":"d34047b6","name()":"06fdde03","oracle()":"7dc0d1d0","owner()":"8da5cb5b","ownerOf(uint256)":"6352211e","renounceOwnership()":"715018a6","safeTransferFrom(address,address,uint256)":"42842e0e","safeTransferFrom(address,address,uint256,bytes)":"b88d4fde","setApprovalForAll(address,bool)":"a22cb465","setOracle(address)":"7adbf973","supportsInterface(bytes4)":"01ffc9a7","symbol()":"95d89b41","tokenURI(uint256)":"c87b56dd","transfer(address,address,uint256,bytes,bytes)":"c78fed04","transferFrom(address,address,uint256)":"23b872dd","transferOwnership(address)":"f2fde38b"},"id":42}