{"abi":[{"type":"constructor","inputs":[],"stateMutability":"nonpayable"},{"type":"function","name":"agentCount","inputs":[],"outputs":[{"name":"","type":"uint256","internalType":"uint256"}],"stateMutability":"view"},{"type":"function","name":"agentList","inputs":[{"name":"","type":"uint256","internalType":"uint256"}],"outputs":[{"name":"","type":"address","internalType":"address"}],"stateMutability":"view"},{"type":"function","name":"agents","inputs":[{"name":"","type":"address","internalType":"address"}],"outputs":[{"name":"owner","type":"address","internalType":"address"},{"name":"inftTokenId","type":"string","internalType":"string"},{"name":"metadata","type":"string","internalType":"string"},{"name":"privacyEnabled","type":"bool","internalType":"bool"},{"name":"registeredAt","type":"uint256","internalType":"uint256"}],"stateMutability":"view"},{"type":"function","name":"getAgent","inputs":[{"name":"agentAddr","type":"address","internalType":"address"}],"outputs":[{"name":"","type":"tuple","internalType":"struct AgentRegistry.AgentInfo","components":[{"name":"owner","type":"address","internalType":"address"},{"name":"inftTokenId","type":"string","internalType":"string"},{"name":"metadata","type":"string","internalType":"string"},{"name":"privacyEnabled","type":"bool","internalType":"bool"},{"name":"registeredAt","type":"uint256","internalType":"uint256"}]}],"stateMutability":"view"},{"type":"function","name":"getAllAgents","inputs":[],"outputs":[{"name":"","type":"address[]","internalType":"address[]"}],"stateMutability":"view"},{"type":"function","name":"logAction","inputs":[{"name":"actionType","type":"string","internalType":"string"},{"name":"dataHash","type":"string","internalType":"string"}],"outputs":[],"stateMutability":"nonpayable"},{"type":"function","name":"owner","inputs":[],"outputs":[{"name":"","type":"address","internalType":"address"}],"stateMutability":"view"},{"type":"function","name":"registerAgent","inputs":[{"name":"inftTokenId","type":"string","internalType":"string"},{"name":"metadata","type":"string","internalType":"string"},{"name":"privacyEnabled","type":"bool","internalType":"bool"}],"outputs":[],"stateMutability":"nonpayable"},{"type":"function","name":"togglePrivacy","inputs":[{"name":"enabled","type":"bool","internalType":"bool"}],"outputs":[],"stateMutability":"nonpayable"},{"type":"function","name":"updateMetadata","inputs":[{"name":"metadata","type":"string","internalType":"string"}],"outputs":[],"stateMutability":"nonpayable"},{"type":"event","name":"ActionLogged","inputs":[{"name":"agentAddress","type":"address","indexed":true,"internalType":"address"},{"name":"actionType","type":"string","indexed":false,"internalType":"string"},{"name":"dataHash","type":"string","indexed":false,"internalType":"string"}],"anonymous":false},{"type":"event","name":"AgentMetadataUpdated","inputs":[{"name":"agentAddress","type":"address","indexed":true,"internalType":"address"},{"name":"metadata","type":"string","indexed":false,"internalType":"string"}],"anonymous":false},{"type":"event","name":"AgentRegistered","inputs":[{"name":"agentAddress","type":"address","indexed":true,"internalType":"address"},{"name":"inftTokenId","type":"string","indexed":false,"internalType":"string"},{"name":"privacyEnabled","type":"bool","indexed":false,"internalType":"bool"}],"anonymous":false},{"type":"event","name":"PrivacyToggled","inputs":[{"name":"agentAddress","type":"address","indexed":true,"internalType":"address"},{"name":"privacyEnabled","type":"bool","indexed":false,"internalType":"bool"}],"anonymous":false}],"bytecode":{"object":"0x6080604052348015600e575f5ffd5b503360025f6101000a81548173ffffffffffffffffffffffffffffffffffffffff021916908373ffffffffffffffffffffffffffffffffffffffff1602179055506118638061005c5f395ff3fe608060405234801561000f575f5ffd5b506004361061009c575f3560e01c806397f8abd81161006457806397f8abd814610144578063b3deaf7d14610160578063b7dc12841461017c578063fb3551ff1461019a578063fd66091e146101ca5761009c565b80632f80c54f146100a057806375a31a22146100d0578063860e4ac6146100ec5780638da5cb5b1461010a578063918b5be114610128575b5f5ffd5b6100ba60048036038101906100b59190610cce565b6101fe565b6040516100c79190610d38565b60405180910390f35b6100ea60048036038101906100e59190610de7565b610239565b005b6100f4610510565b6040516101019190610f2f565b60405180910390f35b61011261059b565b60405161011f9190610d38565b60405180910390f35b610142600480360381019061013d9190610f4f565b6105c0565b005b61015e60048036038101906101599190610f9a565b6106e6565b005b61017a60048036038101906101759190611018565b6107c3565b005b6101846108ed565b6040516101919190611052565b60405180910390f35b6101b460048036038101906101af9190611095565b6108f9565b6040516101c191906111c8565b60405180910390f35b6101e460048036038101906101df9190611095565b610ae7565b6040516101f595949392919061123f565b60405180910390f35b6001818154811061020d575f80fd5b905f5260205f20015f915054906101000a900473ffffffffffffffffffffffffffffffffffffffff1681565b5f5f5f3373ffffffffffffffffffffffffffffffffffffffff1673ffffffffffffffffffffffffffffffffffffffff1681526020019081526020015f2060040154146102ba576040517f08c379a00000000000000000000000000000000000000000000000000000000081526004016102b1906112e8565b60405180910390fd5b6040518060a001604052803373ffffffffffffffffffffffffffffffffffffffff16815260200186868080601f0160208091040260200160405190810160405280939291908181526020018383808284375f81840152601f19601f82011690508083019250505050505050815260200184848080601f0160208091040260200160405190810160405280939291908181526020018383808284375f81840152601f19601f8201169050808301925050505050505081526020018215158152602001428152505f5f3373ffffffffffffffffffffffffffffffffffffffff1673ffffffffffffffffffffffffffffffffffffffff1681526020019081526020015f205f820151815f015f6101000a81548173ffffffffffffffffffffffffffffffffffffffff021916908373ffffffffffffffffffffffffffffffffffffffff16021790555060208201518160010190816104149190611541565b50604082015181600201908161042a9190611541565b506060820151816003015f6101000a81548160ff02191690831515021790555060808201518160040155905050600133908060018154018082558091505060019003905f5260205f20015f9091909190916101000a81548173ffffffffffffffffffffffffffffffffffffffff021916908373ffffffffffffffffffffffffffffffffffffffff1602179055503373ffffffffffffffffffffffffffffffffffffffff167f4fd6214775aca434c52b7474e0c0d248c4981b05b2de61de3166ffb341704e138686846040516105019392919061164a565b60405180910390a25050505050565b6060600180548060200260200160405190810160405280929190818152602001828054801561059157602002820191905f5260205f20905b815f9054906101000a900473ffffffffffffffffffffffffffffffffffffffff1673ffffffffffffffffffffffffffffffffffffffff1681526020019060010190808311610548575b5050505050905090565b60025f9054906101000a900473ffffffffffffffffffffffffffffffffffffffff1681565b335f5f5f8373ffffffffffffffffffffffffffffffffffffffff1673ffffffffffffffffffffffffffffffffffffffff1681526020019081526020015f206004015403610642576040517f08c379a0000000000000000000000000000000000000000000000000000000008152600401610639906116c4565b60405180910390fd5b82825f5f3373ffffffffffffffffffffffffffffffffffffffff1673ffffffffffffffffffffffffffffffffffffffff1681526020019081526020015f2060020191826106909291906116ec565b503373ffffffffffffffffffffffffffffffffffffffff167f12a9d4aa9479d9e2272759e07df3e6c2a5811bacb916aa3f202028957f205bc184846040516106d99291906117b9565b60405180910390a2505050565b335f5f5f8373ffffffffffffffffffffffffffffffffffffffff1673ffffffffffffffffffffffffffffffffffffffff1681526020019081526020015f206004015403610768576040517f08c379a000000000000000000000000000000000000000000000000000000000815260040161075f906116c4565b60405180910390fd5b3373ffffffffffffffffffffffffffffffffffffffff167fb7422199dd1457a590e77b44cc3cc853f37225f22ecdc4e0ae50fde56047a5de868686866040516107b494939291906117db565b60405180910390a25050505050565b335f5f5f8373ffffffffffffffffffffffffffffffffffffffff1673ffffffffffffffffffffffffffffffffffffffff1681526020019081526020015f206004015403610845576040517f08c379a000000000000000000000000000000000000000000000000000000000815260040161083c906116c4565b60405180910390fd5b815f5f3373ffffffffffffffffffffffffffffffffffffffff1673ffffffffffffffffffffffffffffffffffffffff1681526020019081526020015f206003015f6101000a81548160ff0219169083151502179055503373ffffffffffffffffffffffffffffffffffffffff167ff3c601799015dedb0e009a589920f49d0ac044fb2b09384090264ecc25bcc605836040516108e19190611814565b60405180910390a25050565b5f600180549050905090565b610901610c4f565b5f5f8373ffffffffffffffffffffffffffffffffffffffff1673ffffffffffffffffffffffffffffffffffffffff1681526020019081526020015f206040518060a00160405290815f82015f9054906101000a900473ffffffffffffffffffffffffffffffffffffffff1673ffffffffffffffffffffffffffffffffffffffff1673ffffffffffffffffffffffffffffffffffffffff1681526020016001820180546109ac90611360565b80601f01602080910402602001604051908101604052809291908181526020018280546109d890611360565b8015610a235780601f106109fa57610100808354040283529160200191610a23565b820191905f5260205f20905b815481529060010190602001808311610a0657829003601f168201915b50505050508152602001600282018054610a3c90611360565b80601f0160208091040260200160405190810160405280929190818152602001828054610a6890611360565b8015610ab35780601f10610a8a57610100808354040283529160200191610ab3565b820191905f5260205f20905b815481529060010190602001808311610a9657829003601f168201915b50505050508152602001600382015f9054906101000a900460ff161515151581526020016004820154815250509050919050565b5f602052805f5260405f205f91509050805f015f9054906101000a900473ffffffffffffffffffffffffffffffffffffffff1690806001018054610b2a90611360565b80601f0160208091040260200160405190810160405280929190818152602001828054610b5690611360565b8015610ba15780601f10610b7857610100808354040283529160200191610ba1565b820191905f5260205f20905b815481529060010190602001808311610b8457829003601f168201915b505050505090806002018054610bb690611360565b80601f0160208091040260200160405190810160405280929190818152602001828054610be290611360565b8015610c2d5780601f10610c0457610100808354040283529160200191610c2d565b820191905f5260205f20905b815481529060010190602001808311610c1057829003601f168201915b505050505090806003015f9054906101000a900460ff16908060040154905085565b6040518060a001604052805f73ffffffffffffffffffffffffffffffffffffffff16815260200160608152602001606081526020015f151581526020015f81525090565b5f5ffd5b5f5ffd5b5f819050919050565b610cad81610c9b565b8114610cb7575f5ffd5b50565b5f81359050610cc881610ca4565b92915050565b5f60208284031215610ce357610ce2610c93565b5b5f610cf084828501610cba565b91505092915050565b5f73ffffffffffffffffffffffffffffffffffffffff82169050919050565b5f610d2282610cf9565b9050919050565b610d3281610d18565b82525050565b5f602082019050610d4b5f830184610d29565b92915050565b5f5ffd5b5f5ffd5b5f5ffd5b5f5f83601f840112610d7257610d71610d51565b5b8235905067ffffffffffffffff811115610d8f57610d8e610d55565b5b602083019150836001820283011115610dab57610daa610d59565b5b9250929050565b5f8115159050919050565b610dc681610db2565b8114610dd0575f5ffd5b50565b5f81359050610de181610dbd565b92915050565b5f5f5f5f5f60608688031215610e0057610dff610c93565b5b5f86013567ffffffffffffffff811115610e1d57610e1c610c97565b5b610e2988828901610d5d565b9550955050602086013567ffffffffffffffff811115610e4c57610e4b610c97565b5b610e5888828901610d5d565b93509350506040610e6b88828901610dd3565b9150509295509295909350565b5f81519050919050565b5f82825260208201905092915050565b5f819050602082019050919050565b610eaa81610d18565b82525050565b5f610ebb8383610ea1565b60208301905092915050565b5f602082019050919050565b5f610edd82610e78565b610ee78185610e82565b9350610ef283610e92565b805f5b83811015610f22578151610f098882610eb0565b9750610f1483610ec7565b925050600181019050610ef5565b5085935050505092915050565b5f6020820190508181035f830152610f478184610ed3565b905092915050565b5f5f60208385031215610f6557610f64610c93565b5b5f83013567ffffffffffffffff811115610f8257610f81610c97565b5b610f8e85828601610d5d565b92509250509250929050565b5f5f5f5f60408587031215610fb257610fb1610c93565b5b5f85013567ffffffffffffffff811115610fcf57610fce610c97565b5b610fdb87828801610d5d565b9450945050602085013567ffffffffffffffff811115610ffe57610ffd610c97565b5b61100a87828801610d5d565b925092505092959194509250565b5f6020828403121561102d5761102c610c93565b5b5f61103a84828501610dd3565b91505092915050565b61104c81610c9b565b82525050565b5f6020820190506110655f830184611043565b92915050565b61107481610d18565b811461107e575f5ffd5b50565b5f8135905061108f8161106b565b92915050565b5f602082840312156110aa576110a9610c93565b5b5f6110b784828501611081565b91505092915050565b5f81519050919050565b5f82825260208201905092915050565b8281835e5f83830152505050565b5f601f19601f8301169050919050565b5f611102826110c0565b61110c81856110ca565b935061111c8185602086016110da565b611125816110e8565b840191505092915050565b61113981610db2565b82525050565b61114881610c9b565b82525050565b5f60a083015f8301516111635f860182610ea1565b506020830151848203602086015261117b82826110f8565b9150506040830151848203604086015261119582826110f8565b91505060608301516111aa6060860182611130565b5060808301516111bd608086018261113f565b508091505092915050565b5f6020820190508181035f8301526111e0818461114e565b905092915050565b5f82825260208201905092915050565b5f611202826110c0565b61120c81856111e8565b935061121c8185602086016110da565b611225816110e8565b840191505092915050565b61123981610db2565b82525050565b5f60a0820190506112525f830188610d29565b818103602083015261126481876111f8565b9050818103604083015261127881866111f8565b90506112876060830185611230565b6112946080830184611043565b9695505050505050565b7f416c7265616479207265676973746572656400000000000000000000000000005f82015250565b5f6112d26012836111e8565b91506112dd8261129e565b602082019050919050565b5f6020820190508181035f8301526112ff816112c6565b9050919050565b7f4e487b71000000000000000000000000000000000000000000000000000000005f52604160045260245ffd5b7f4e487b71000000000000000000000000000000000000000000000000000000005f52602260045260245ffd5b5f600282049050600182168061137757607f821691505b60208210810361138a57611389611333565b5b50919050565b5f819050815f5260205f209050919050565b5f6020601f8301049050919050565b5f82821b905092915050565b5f600883026113ec7fffffffffffffffffffffffffffffffffffffffffffffffffffffffffffffffff826113b1565b6113f686836113b1565b95508019841693508086168417925050509392505050565b5f819050919050565b5f61143161142c61142784610c9b565b61140e565b610c9b565b9050919050565b5f819050919050565b61144a83611417565b61145e61145682611438565b8484546113bd565b825550505050565b5f5f905090565b611475611466565b611480818484611441565b505050565b5f5b828110156114a65761149b5f82840161146d565b600181019050611487565b505050565b601f8211156114f957828211156114f8576114c581611390565b6114ce836113a2565b6114d7856113a2565b60208610156114e4575f90505b8083016114f382840382611485565b505050505b5b505050565b5f82821c905092915050565b5f6115195f19846008026114fe565b1980831691505092915050565b5f611531838361150a565b9150826002028217905092915050565b61154a826110c0565b67ffffffffffffffff81111561156357611562611306565b5b61156d8254611360565b6115788282856114ab565b5f60209050601f8311600181146115a9575f8415611597578287015190505b6115a18582611526565b865550611608565b601f1984166115b786611390565b5f5b828110156115de578489015182556001820191506020850194506020810190506115b9565b868310156115fb57848901516115f7601f89168261150a565b8355505b6001600288020188555050505b505050505050565b828183375f83830152505050565b5f61162983856111e8565b9350611636838584611610565b61163f836110e8565b840190509392505050565b5f6040820190508181035f83015261166381858761161e565b90506116726020830184611230565b949350505050565b7f4167656e74206e6f7420726567697374657265640000000000000000000000005f82015250565b5f6116ae6014836111e8565b91506116b98261167a565b602082019050919050565b5f6020820190508181035f8301526116db816116a2565b9050919050565b5f82905092915050565b6116f683836116e2565b67ffffffffffffffff81111561170f5761170e611306565b5b6117198254611360565b6117248282856114ab565b5f601f831160018114611751575f841561173f578287013590505b6117498582611526565b8655506117b0565b601f19841661175f86611390565b5f5b8281101561178657848901358255600182019150602085019450602081019050611761565b868310156117a3578489013561179f601f89168261150a565b8355505b6001600288020188555050505b50505050505050565b5f6020820190508181035f8301526117d281848661161e565b90509392505050565b5f6040820190508181035f8301526117f481868861161e565b9050818103602083015261180981848661161e565b905095945050505050565b5f6020820190506118275f830184611230565b9291505056fea2646970667358221220660af3aa56c1c2f8ba008c31526660a1cd0e8dcb66cf84a72fdd904ce671436764736f6c63430008210033","linkReferences":{}},"methodIdentifiers":{"agentCount()":"b7dc1284","agentList(uint256)":"2f80c54f","agents(address)":"fd66091e","getAgent(address)":"fb3551ff","getAllAgents()":"860e4ac6","logAction(string,string)":"97f8abd8","owner()":"8da5cb5b","registerAgent(string,string,bool)":"75a31a22","togglePrivacy(bool)":"b3deaf7d","updateMetadata(string)":"918b5be1"},"id":16}