{"abi":[{"type":"constructor","inputs":[],"stateMutability":"nonpayable"},{"type":"function","name":"agentList","inputs":[{"name":"","type":"uint256","internalType":"uint256"}],"outputs":[{"name":"","type":"address","internalType":"address"}],"stateMutability":"view"},{"type":"function","name":"agents","inputs":[{"name":"","type":"address","internalType":"address"}],"outputs":[{"name":"owner","type":"address","internalType":"address"},{"name":"inftTokenId","type":"string","internalType":"string"},{"name":"metadata","type":"string","internalType":"string"},{"name":"privacyEnabled","type":"bool","internalType":"bool"},{"name":"registeredAt","type":"uint256","internalType":"uint256"}],"stateMutability":"view"},{"type":"function","name":"getAgent","inputs":[{"name":"agentAddr","type":"address","internalType":"address"}],"outputs":[{"name":"","type":"tuple","internalType":"struct AgentRegistry.AgentInfo","components":[{"name":"owner","type":"address","internalType":"address"},{"name":"inftTokenId","type":"string","internalType":"string"},{"name":"metadata","type":"string","internalType":"string"},{"name":"privacyEnabled","type":"bool","internalType":"bool"},{"name":"registeredAt","type":"uint256","internalType":"uint256"}]}],"stateMutability":"view"},{"type":"function","name":"logAction","inputs":[{"name":"actionType","type":"string","internalType":"string"},{"name":"dataHash","type":"string","internalType":"string"}],"outputs":[],"stateMutability":"nonpayable"},{"type":"function","name":"owner","inputs":[],"outputs":[{"name":"","type":"address","internalType":"address"}],"stateMutability":"view"},{"type":"function","name":"registerAgent","inputs":[{"name":"inftTokenId","type":"string","internalType":"string"},{"name":"metadata","type":"string","internalType":"string"},{"name":"privacyEnabled","type":"bool","internalType":"bool"}],"outputs":[],"stateMutability":"nonpayable"},{"type":"function","name":"togglePrivacy","inputs":[{"name":"enabled","type":"bool","internalType":"bool"}],"outputs":[],"stateMutability":"nonpayable"},{"type":"event","name":"ActionLogged","inputs":[{"name":"agentAddress","type":"address","indexed":true,"internalType":"address"},{"name":"actionType","type":"string","indexed":false,"internalType":"string"},{"name":"dataHash","type":"string","indexed":false,"internalType":"string"}],"anonymous":false},{"type":"event","name":"AgentRegistered","inputs":[{"name":"agentAddress","type":"address","indexed":true,"internalType":"address"},{"name":"inftTokenId","type":"string","indexed":false,"internalType":"string"},{"name":"privacyEnabled","type":"bool","indexed":false,"internalType":"bool"}],"anonymous":false},{"type":"event","name":"PrivacyToggled","inputs":[{"name":"agentAddress","type":"address","indexed":true,"internalType":"address"},{"name":"privacyEnabled","type":"bool","indexed":false,"internalType":"bool"}],"anonymous":false}],"bytecode":{"object":"0x6080604052348015600e575f5ffd5b503360025f6101000a81548173ffffffffffffffffffffffffffffffffffffffff021916908373ffffffffffffffffffffffffffffffffffffffff1602179055506114088061005c5f395ff3fe608060405234801561000f575f5ffd5b506004361061007b575f3560e01c806397f8abd81161005957806397f8abd8146100e9578063b3deaf7d14610105578063fb3551ff14610121578063fd66091e146101515761007b565b80632f80c54f1461007f57806375a31a22146100af5780638da5cb5b146100cb575b5f5ffd5b61009960048036038101906100949190610a98565b610185565b6040516100a69190610b02565b60405180910390f35b6100c960048036038101906100c49190610bb1565b6101c0565b005b6100d3610497565b6040516100e09190610b02565b60405180910390f35b61010360048036038101906100fe9190610c42565b6104bc565b005b61011f600480360381019061011a9190610cc0565b610599565b005b61013b60048036038101906101369190610d15565b6106c3565b6040516101489190610e57565b60405180910390f35b61016b60048036038101906101669190610d15565b6108b1565b60405161017c959493929190610edd565b60405180910390f35b60018181548110610194575f80fd5b905f5260205f20015f915054906101000a900473ffffffffffffffffffffffffffffffffffffffff1681565b5f5f5f3373ffffffffffffffffffffffffffffffffffffffff1673ffffffffffffffffffffffffffffffffffffffff1681526020019081526020015f206004015414610241576040517f08c379a000000000000000000000000000000000000000000000000000000000815260040161023890610f86565b60405180910390fd5b6040518060a001604052803373ffffffffffffffffffffffffffffffffffffffff16815260200186868080601f0160208091040260200160405190810160405280939291908181526020018383808284375f81840152601f19601f82011690508083019250505050505050815260200184848080601f0160208091040260200160405190810160405280939291908181526020018383808284375f81840152601f19601f8201169050808301925050505050505081526020018215158152602001428152505f5f3373ffffffffffffffffffffffffffffffffffffffff1673ffffffffffffffffffffffffffffffffffffffff1681526020019081526020015f205f820151815f015f6101000a81548173ffffffffffffffffffffffffffffffffffffffff021916908373ffffffffffffffffffffffffffffffffffffffff160217905550602082015181600101908161039b91906111df565b5060408201518160020190816103b191906111df565b506060820151816003015f6101000a81548160ff02191690831515021790555060808201518160040155905050600133908060018154018082558091505060019003905f5260205f20015f9091909190916101000a81548173ffffffffffffffffffffffffffffffffffffffff021916908373ffffffffffffffffffffffffffffffffffffffff1602179055503373ffffffffffffffffffffffffffffffffffffffff167f4fd6214775aca434c52b7474e0c0d248c4981b05b2de61de3166ffb341704e13868684604051610488939291906112e8565b60405180910390a25050505050565b60025f9054906101000a900473ffffffffffffffffffffffffffffffffffffffff1681565b335f5f5f8373ffffffffffffffffffffffffffffffffffffffff1673ffffffffffffffffffffffffffffffffffffffff1681526020019081526020015f20600401540361053e576040517f08c379a000000000000000000000000000000000000000000000000000000000815260040161053590611362565b60405180910390fd5b3373ffffffffffffffffffffffffffffffffffffffff167fb7422199dd1457a590e77b44cc3cc853f37225f22ecdc4e0ae50fde56047a5de8686868660405161058a9493929190611380565b60405180910390a25050505050565b335f5f5f8373ffffffffffffffffffffffffffffffffffffffff1673ffffffffffffffffffffffffffffffffffffffff1681526020019081526020015f20600401540361061b576040517f08c379a000000000000000000000000000000000000000000000000000000000815260040161061290611362565b60405180910390fd5b815f5f3373ffffffffffffffffffffffffffffffffffffffff1673ffffffffffffffffffffffffffffffffffffffff1681526020019081526020015f206003015f6101000a81548160ff0219169083151502179055503373ffffffffffffffffffffffffffffffffffffffff167ff3c601799015dedb0e009a589920f49d0ac044fb2b09384090264ecc25bcc605836040516106b791906113b9565b60405180910390a25050565b6106cb610a19565b5f5f8373ffffffffffffffffffffffffffffffffffffffff1673ffffffffffffffffffffffffffffffffffffffff1681526020019081526020015f206040518060a00160405290815f82015f9054906101000a900473ffffffffffffffffffffffffffffffffffffffff1673ffffffffffffffffffffffffffffffffffffffff1673ffffffffffffffffffffffffffffffffffffffff16815260200160018201805461077690610ffe565b80601f01602080910402602001604051908101604052809291908181526020018280546107a290610ffe565b80156107ed5780601f106107c4576101008083540402835291602001916107ed565b820191905f5260205f20905b8154815290600101906020018083116107d057829003601f168201915b5050505050815260200160028201805461080690610ffe565b80601f016020809104026020016040519081016040528092919081815260200182805461083290610ffe565b801561087d5780601f106108545761010080835404028352916020019161087d565b820191905f5260205f20905b81548152906001019060200180831161086057829003601f168201915b50505050508152602001600382015f9054906101000a900460ff161515151581526020016004820154815250509050919050565b5f602052805f5260405f205f91509050805f015f9054906101000a900473ffffffffffffffffffffffffffffffffffffffff16908060010180546108f490610ffe565b80601f016020809104026020016040519081016040528092919081815260200182805461092090610ffe565b801561096b5780601f106109425761010080835404028352916020019161096b565b820191905f5260205f20905b81548152906001019060200180831161094e57829003601f168201915b50505050509080600201805461098090610ffe565b80601f01602080910402602001604051908101604052809291908181526020018280546109ac90610ffe565b80156109f75780601f106109ce576101008083540402835291602001916109f7565b820191905f5260205f20905b8154815290600101906020018083116109da57829003601f168201915b505050505090806003015f9054906101000a900460ff16908060040154905085565b6040518060a001604052805f73ffffffffffffffffffffffffffffffffffffffff16815260200160608152602001606081526020015f151581526020015f81525090565b5f5ffd5b5f5ffd5b5f819050919050565b610a7781610a65565b8114610a81575f5ffd5b50565b5f81359050610a9281610a6e565b92915050565b5f60208284031215610aad57610aac610a5d565b5b5f610aba84828501610a84565b91505092915050565b5f73ffffffffffffffffffffffffffffffffffffffff82169050919050565b5f610aec82610ac3565b9050919050565b610afc81610ae2565b82525050565b5f602082019050610b155f830184610af3565b92915050565b5f5ffd5b5f5ffd5b5f5ffd5b5f5f83601f840112610b3c57610b3b610b1b565b5b8235905067ffffffffffffffff811115610b5957610b58610b1f565b5b602083019150836001820283011115610b7557610b74610b23565b5b9250929050565b5f8115159050919050565b610b9081610b7c565b8114610b9a575f5ffd5b50565b5f81359050610bab81610b87565b92915050565b5f5f5f5f5f60608688031215610bca57610bc9610a5d565b5b5f86013567ffffffffffffffff811115610be757610be6610a61565b5b610bf388828901610b27565b9550955050602086013567ffffffffffffffff811115610c1657610c15610a61565b5b610c2288828901610b27565b93509350506040610c3588828901610b9d565b9150509295509295909350565b5f5f5f5f60408587031215610c5a57610c59610a5d565b5b5f85013567ffffffffffffffff811115610c7757610c76610a61565b5b610c8387828801610b27565b9450945050602085013567ffffffffffffffff811115610ca657610ca5610a61565b5b610cb287828801610b27565b925092505092959194509250565b5f60208284031215610cd557610cd4610a5d565b5b5f610ce284828501610b9d565b91505092915050565b610cf481610ae2565b8114610cfe575f5ffd5b50565b5f81359050610d0f81610ceb565b92915050565b5f60208284031215610d2a57610d29610a5d565b5b5f610d3784828501610d01565b91505092915050565b610d4981610ae2565b82525050565b5f81519050919050565b5f82825260208201905092915050565b8281835e5f83830152505050565b5f601f19601f8301169050919050565b5f610d9182610d4f565b610d9b8185610d59565b9350610dab818560208601610d69565b610db481610d77565b840191505092915050565b610dc881610b7c565b82525050565b610dd781610a65565b82525050565b5f60a083015f830151610df25f860182610d40565b5060208301518482036020860152610e0a8282610d87565b91505060408301518482036040860152610e248282610d87565b9150506060830151610e396060860182610dbf565b506080830151610e4c6080860182610dce565b508091505092915050565b5f6020820190508181035f830152610e6f8184610ddd565b905092915050565b5f82825260208201905092915050565b5f610e9182610d4f565b610e9b8185610e77565b9350610eab818560208601610d69565b610eb481610d77565b840191505092915050565b610ec881610b7c565b82525050565b610ed781610a65565b82525050565b5f60a082019050610ef05f830188610af3565b8181036020830152610f028187610e87565b90508181036040830152610f168186610e87565b9050610f256060830185610ebf565b610f326080830184610ece565b9695505050505050565b7f416c7265616479207265676973746572656400000000000000000000000000005f82015250565b5f610f70601283610e77565b9150610f7b82610f3c565b602082019050919050565b5f6020820190508181035f830152610f9d81610f64565b9050919050565b7f4e487b71000000000000000000000000000000000000000000000000000000005f52604160045260245ffd5b7f4e487b71000000000000000000000000000000000000000000000000000000005f52602260045260245ffd5b5f600282049050600182168061101557607f821691505b60208210810361102857611027610fd1565b5b50919050565b5f819050815f5260205f209050919050565b5f6020601f8301049050919050565b5f82821b905092915050565b5f6008830261108a7fffffffffffffffffffffffffffffffffffffffffffffffffffffffffffffffff8261104f565b611094868361104f565b95508019841693508086168417925050509392505050565b5f819050919050565b5f6110cf6110ca6110c584610a65565b6110ac565b610a65565b9050919050565b5f819050919050565b6110e8836110b5565b6110fc6110f4826110d6565b84845461105b565b825550505050565b5f5f905090565b611113611104565b61111e8184846110df565b505050565b5f5b82811015611144576111395f82840161110b565b600181019050611125565b505050565b601f8211156111975782821115611196576111638161102e565b61116c83611040565b61117585611040565b6020861015611182575f90505b80830161119182840382611123565b505050505b5b505050565b5f82821c905092915050565b5f6111b75f198460080261119c565b1980831691505092915050565b5f6111cf83836111a8565b9150826002028217905092915050565b6111e882610d4f565b67ffffffffffffffff81111561120157611200610fa4565b5b61120b8254610ffe565b611216828285611149565b5f60209050601f831160018114611247575f8415611235578287015190505b61123f85826111c4565b8655506112a6565b601f1984166112558661102e565b5f5b8281101561127c57848901518255600182019150602085019450602081019050611257565b868310156112995784890151611295601f8916826111a8565b8355505b6001600288020188555050505b505050505050565b828183375f83830152505050565b5f6112c78385610e77565b93506112d48385846112ae565b6112dd83610d77565b840190509392505050565b5f6040820190508181035f8301526113018185876112bc565b90506113106020830184610ebf565b949350505050565b7f4167656e74206e6f7420726567697374657265640000000000000000000000005f82015250565b5f61134c601483610e77565b915061135782611318565b602082019050919050565b5f6020820190508181035f83015261137981611340565b9050919050565b5f6040820190508181035f8301526113998186886112bc565b905081810360208301526113ae8184866112bc565b905095945050505050565b5f6020820190506113cc5f830184610ebf565b9291505056fea26469706673582212207982e55227113a0b89e0b719dda8ce47751d74fe6e78a751291944cd4d57599664736f6c63430008210033","linkReferences":{}},"methodIdentifiers":{"agentList(uint256)":"2f80c54f","agents(address)":"fd66091e","getAgent(address)":"fb3551ff","logAction(string,string)":"97f8abd8","owner()":"8da5cb5b","registerAgent(string,string,bool)":"75a31a22","togglePrivacy(bool)":"b3deaf7d"},"id":41}