{"abi":[{"type":"constructor","inputs":[],"stateMutability":"nonpayable"},{"type":"function","name":"agentCount","inputs":[],"outputs":[{"name":"","type":"uint256","internalType":"uint256"}],"stateMutability":"view"},{"type":"function","name":"agentList","inputs":[{"name":"","type":"uint256","internalType":"uint256"}],"outputs":[{"name":"","type":"address","internalType":"address"}],"stateMutability":"view"},{"type":"function","name":"agents","inputs":[{"name":"","type":"address","internalType":"address"}],"outputs":[{"name":"owner","type":"address","internalType":"address"},{"name":"inftTokenId","type":"string","internalType":"string"},{"name":"metadata","type":"string","internalType":"string"},{"name":"privacyEnabled","type":"bool","internalType":"bool"},{"name":"registeredAt","type":"uint256","internalType":"uint256"}],"stateMutability":"view"},{"type":"function","name":"getAgent","inputs":[{"name":"agentAddr","type":"address","internalType":"address"}],"outputs":[{"name":"","type":"tuple","internalType":"struct AgentRegistry.AgentInfo","components":[{"name":"owner","type":"address","internalType":"address"},{"name":"inftTokenId","type":"string","internalType":"string"},{"name":"metadata","type":"string","internalType":"string"},{"name":"privacyEnabled","type":"bool","internalType":"bool"},{"name":"registeredAt","type":"uint256","internalType":"uint256"}]}],"stateMutability":"view"},{"type":"function","name":"getAllAgents","inputs":[],"outputs":[{"name":"","type":"address[]","internalType":"address[]"}],"stateMutability":"view"},{"type":"function","name":"owner","inputs":[],"outputs":[{"name":"","type":"address","internalType":"address"}],"stateMutability":"view"},{"type":"function","name":"registerAgent","inputs":[{"name":"inftTokenId","type":"string","internalType":"string"},{"name":"metadata","type":"string","internalType":"string"},{"name":"privacyEnabled","type":"bool","internalType":"bool"}],"outputs":[],"stateMutability":"nonpayable"},{"type":"function","name":"togglePrivacy","inputs":[{"name":"enabled","type":"bool","internalType":"bool"}],"outputs":[],"stateMutability":"nonpayable"},{"type":"function","name":"updateMetadata","inputs":[{"name":"metadata","type":"string","internalType":"string"}],"outputs":[],"stateMutability":"nonpayable"},{"type":"event","name":"AgentMetadataUpdated","inputs":[{"name":"agentAddress","type":"address","indexed":true,"internalType":"address"},{"name":"metadata","type":"string","indexed":false,"internalType":"string"}],"anonymous":false},{"type":"event","name":"AgentRegistered","inputs":[{"name":"agentAddress","type":"address","indexed":true,"internalType":"address"},{"name":"inftTokenId","type":"string","indexed":false,"internalType":"string"},{"name":"privacyEnabled","type":"bool","indexed":false,"internalType":"bool"}],"anonymous":false},{"type":"event","name":"PrivacyToggled","inputs":[{"name":"agentAddress","type":"address","indexed":true,"internalType":"address"},{"name":"privacyEnabled","type":"bool","indexed":false,"internalType":"bool"}],"anonymous":false}],"bytecode":{"object":"0x6080604052348015600e575f5ffd5b503360025f6101000a81548173ffffffffffffffffffffffffffffffffffffffff021916908373ffffffffffffffffffffffffffffffffffffffff1602179055506116a88061005c5f395ff3fe608060405234801561000f575f5ffd5b5060043610610091575f3560e01c8063918b5be111610064578063918b5be11461011d578063b3deaf7d14610139578063b7dc128414610155578063fb3551ff14610173578063fd66091e146101a357610091565b80632f80c54f1461009557806375a31a22146100c5578063860e4ac6146100e15780638da5cb5b146100ff575b5f5ffd5b6100af60048036038101906100aa9190610bca565b6101d7565b6040516100bc9190610c34565b60405180910390f35b6100df60048036038101906100da9190610ce3565b610212565b005b6100e96104e9565b6040516100f69190610e2b565b60405180910390f35b610107610574565b6040516101149190610c34565b60405180910390f35b61013760048036038101906101329190610e4b565b610599565b005b610153600480360381019061014e9190610e96565b6106bf565b005b61015d6107e9565b60405161016a9190610ed0565b60405180910390f35b61018d60048036038101906101889190610f13565b6107f5565b60405161019a9190611046565b60405180910390f35b6101bd60048036038101906101b89190610f13565b6109e3565b6040516101ce9594939291906110bd565b60405180910390f35b600181815481106101e6575f80fd5b905f5260205f20015f915054906101000a900473ffffffffffffffffffffffffffffffffffffffff1681565b5f5f5f3373ffffffffffffffffffffffffffffffffffffffff1673ffffffffffffffffffffffffffffffffffffffff1681526020019081526020015f206004015414610293576040517f08c379a000000000000000000000000000000000000000000000000000000000815260040161028a90611166565b60405180910390fd5b6040518060a001604052803373ffffffffffffffffffffffffffffffffffffffff16815260200186868080601f0160208091040260200160405190810160405280939291908181526020018383808284375f81840152601f19601f82011690508083019250505050505050815260200184848080601f0160208091040260200160405190810160405280939291908181526020018383808284375f81840152601f19601f8201169050808301925050505050505081526020018215158152602001428152505f5f3373ffffffffffffffffffffffffffffffffffffffff1673ffffffffffffffffffffffffffffffffffffffff1681526020019081526020015f205f820151815f015f6101000a81548173ffffffffffffffffffffffffffffffffffffffff021916908373ffffffffffffffffffffffffffffffffffffffff16021790555060208201518160010190816103ed91906113bf565b50604082015181600201908161040391906113bf565b506060820151816003015f6101000a81548160ff02191690831515021790555060808201518160040155905050600133908060018154018082558091505060019003905f5260205f20015f9091909190916101000a81548173ffffffffffffffffffffffffffffffffffffffff021916908373ffffffffffffffffffffffffffffffffffffffff1602179055503373ffffffffffffffffffffffffffffffffffffffff167f4fd6214775aca434c52b7474e0c0d248c4981b05b2de61de3166ffb341704e138686846040516104da939291906114c8565b60405180910390a25050505050565b6060600180548060200260200160405190810160405280929190818152602001828054801561056a57602002820191905f5260205f20905b815f9054906101000a900473ffffffffffffffffffffffffffffffffffffffff1673ffffffffffffffffffffffffffffffffffffffff1681526020019060010190808311610521575b5050505050905090565b60025f9054906101000a900473ffffffffffffffffffffffffffffffffffffffff1681565b335f5f5f8373ffffffffffffffffffffffffffffffffffffffff1673ffffffffffffffffffffffffffffffffffffffff1681526020019081526020015f20600401540361061b576040517f08c379a000000000000000000000000000000000000000000000000000000000815260040161061290611542565b60405180910390fd5b82825f5f3373ffffffffffffffffffffffffffffffffffffffff1673ffffffffffffffffffffffffffffffffffffffff1681526020019081526020015f20600201918261066992919061156a565b503373ffffffffffffffffffffffffffffffffffffffff167f12a9d4aa9479d9e2272759e07df3e6c2a5811bacb916aa3f202028957f205bc184846040516106b2929190611637565b60405180910390a2505050565b335f5f5f8373ffffffffffffffffffffffffffffffffffffffff1673ffffffffffffffffffffffffffffffffffffffff1681526020019081526020015f206004015403610741576040517f08c379a000000000000000000000000000000000000000000000000000000000815260040161073890611542565b60405180910390fd5b815f5f3373ffffffffffffffffffffffffffffffffffffffff1673ffffffffffffffffffffffffffffffffffffffff1681526020019081526020015f206003015f6101000a81548160ff0219169083151502179055503373ffffffffffffffffffffffffffffffffffffffff167ff3c601799015dedb0e009a589920f49d0ac044fb2b09384090264ecc25bcc605836040516107dd9190611659565b60405180910390a25050565b5f600180549050905090565b6107fd610b4b565b5f5f8373ffffffffffffffffffffffffffffffffffffffff1673ffffffffffffffffffffffffffffffffffffffff1681526020019081526020015f206040518060a00160405290815f82015f9054906101000a900473ffffffffffffffffffffffffffffffffffffffff1673ffffffffffffffffffffffffffffffffffffffff1673ffffffffffffffffffffffffffffffffffffffff1681526020016001820180546108a8906111de565b80601f01602080910402602001604051908101604052809291908181526020018280546108d4906111de565b801561091f5780601f106108f65761010080835404028352916020019161091f565b820191905f5260205f20905b81548152906001019060200180831161090257829003601f168201915b50505050508152602001600282018054610938906111de565b80601f0160208091040260200160405190810160405280929190818152602001828054610964906111de565b80156109af5780601f10610986576101008083540402835291602001916109af565b820191905f5260205f20905b81548152906001019060200180831161099257829003601f168201915b50505050508152602001600382015f9054906101000a900460ff161515151581526020016004820154815250509050919050565b5f602052805f5260405f205f91509050805f015f9054906101000a900473ffffffffffffffffffffffffffffffffffffffff1690806001018054610a26906111de565b80601f0160208091040260200160405190810160405280929190818152602001828054610a52906111de565b8015610a9d5780601f10610a7457610100808354040283529160200191610a9d565b820191905f5260205f20905b815481529060010190602001808311610a8057829003601f168201915b505050505090806002018054610ab2906111de565b80601f0160208091040260200160405190810160405280929190818152602001828054610ade906111de565b8015610b295780601f10610b0057610100808354040283529160200191610b29565b820191905f5260205f20905b815481529060010190602001808311610b0c57829003601f168201915b505050505090806003015f9054906101000a900460ff16908060040154905085565b6040518060a001604052805f73ffffffffffffffffffffffffffffffffffffffff16815260200160608152602001606081526020015f151581526020015f81525090565b5f5ffd5b5f5ffd5b5f819050919050565b610ba981610b97565b8114610bb3575f5ffd5b50565b5f81359050610bc481610ba0565b92915050565b5f60208284031215610bdf57610bde610b8f565b5b5f610bec84828501610bb6565b91505092915050565b5f73ffffffffffffffffffffffffffffffffffffffff82169050919050565b5f610c1e82610bf5565b9050919050565b610c2e81610c14565b82525050565b5f602082019050610c475f830184610c25565b92915050565b5f5ffd5b5f5ffd5b5f5ffd5b5f5f83601f840112610c6e57610c6d610c4d565b5b8235905067ffffffffffffffff811115610c8b57610c8a610c51565b5b602083019150836001820283011115610ca757610ca6610c55565b5b9250929050565b5f8115159050919050565b610cc281610cae565b8114610ccc575f5ffd5b50565b5f81359050610cdd81610cb9565b92915050565b5f5f5f5f5f60608688031215610cfc57610cfb610b8f565b5b5f86013567ffffffffffffffff811115610d1957610d18610b93565b5b610d2588828901610c59565b9550955050602086013567ffffffffffffffff811115610d4857610d47610b93565b5b610d5488828901610c59565b93509350506040610d6788828901610ccf565b9150509295509295909350565b5f81519050919050565b5f82825260208201905092915050565b5f819050602082019050919050565b610da681610c14565b82525050565b5f610db78383610d9d565b60208301905092915050565b5f602082019050919050565b5f610dd982610d74565b610de38185610d7e565b9350610dee83610d8e565b805f5b83811015610e1e578151610e058882610dac565b9750610e1083610dc3565b925050600181019050610df1565b5085935050505092915050565b5f6020820190508181035f830152610e438184610dcf565b905092915050565b5f5f60208385031215610e6157610e60610b8f565b5b5f83013567ffffffffffffffff811115610e7e57610e7d610b93565b5b610e8a85828601610c59565b92509250509250929050565b5f60208284031215610eab57610eaa610b8f565b5b5f610eb884828501610ccf565b91505092915050565b610eca81610b97565b82525050565b5f602082019050610ee35f830184610ec1565b92915050565b610ef281610c14565b8114610efc575f5ffd5b50565b5f81359050610f0d81610ee9565b92915050565b5f60208284031215610f2857610f27610b8f565b5b5f610f3584828501610eff565b91505092915050565b5f81519050919050565b5f82825260208201905092915050565b8281835e5f83830152505050565b5f601f19601f8301169050919050565b5f610f8082610f3e565b610f8a8185610f48565b9350610f9a818560208601610f58565b610fa381610f66565b840191505092915050565b610fb781610cae565b82525050565b610fc681610b97565b82525050565b5f60a083015f830151610fe15f860182610d9d565b5060208301518482036020860152610ff98282610f76565b915050604083015184820360408601526110138282610f76565b91505060608301516110286060860182610fae565b50608083015161103b6080860182610fbd565b508091505092915050565b5f6020820190508181035f83015261105e8184610fcc565b905092915050565b5f82825260208201905092915050565b5f61108082610f3e565b61108a8185611066565b935061109a818560208601610f58565b6110a381610f66565b840191505092915050565b6110b781610cae565b82525050565b5f60a0820190506110d05f830188610c25565b81810360208301526110e28187611076565b905081810360408301526110f68186611076565b905061110560608301856110ae565b6111126080830184610ec1565b9695505050505050565b7f416c7265616479207265676973746572656400000000000000000000000000005f82015250565b5f611150601283611066565b915061115b8261111c565b602082019050919050565b5f6020820190508181035f83015261117d81611144565b9050919050565b7f4e487b71000000000000000000000000000000000000000000000000000000005f52604160045260245ffd5b7f4e487b71000000000000000000000000000000000000000000000000000000005f52602260045260245ffd5b5f60028204905060018216806111f557607f821691505b602082108103611208576112076111b1565b5b50919050565b5f819050815f5260205f209050919050565b5f6020601f8301049050919050565b5f82821b905092915050565b5f6008830261126a7fffffffffffffffffffffffffffffffffffffffffffffffffffffffffffffffff8261122f565b611274868361122f565b95508019841693508086168417925050509392505050565b5f819050919050565b5f6112af6112aa6112a584610b97565b61128c565b610b97565b9050919050565b5f819050919050565b6112c883611295565b6112dc6112d4826112b6565b84845461123b565b825550505050565b5f5f905090565b6112f36112e4565b6112fe8184846112bf565b505050565b5f5b82811015611324576113195f8284016112eb565b600181019050611305565b505050565b601f8211156113775782821115611376576113438161120e565b61134c83611220565b61135585611220565b6020861015611362575f90505b80830161137182840382611303565b505050505b5b505050565b5f82821c905092915050565b5f6113975f198460080261137c565b1980831691505092915050565b5f6113af8383611388565b9150826002028217905092915050565b6113c882610f3e565b67ffffffffffffffff8111156113e1576113e0611184565b5b6113eb82546111de565b6113f6828285611329565b5f60209050601f831160018114611427575f8415611415578287015190505b61141f85826113a4565b865550611486565b601f1984166114358661120e565b5f5b8281101561145c57848901518255600182019150602085019450602081019050611437565b868310156114795784890151611475601f891682611388565b8355505b6001600288020188555050505b505050505050565b828183375f83830152505050565b5f6114a78385611066565b93506114b483858461148e565b6114bd83610f66565b840190509392505050565b5f6040820190508181035f8301526114e181858761149c565b90506114f060208301846110ae565b949350505050565b7f4167656e74206e6f7420726567697374657265640000000000000000000000005f82015250565b5f61152c601483611066565b9150611537826114f8565b602082019050919050565b5f6020820190508181035f83015261155981611520565b9050919050565b5f82905092915050565b6115748383611560565b67ffffffffffffffff81111561158d5761158c611184565b5b61159782546111de565b6115a2828285611329565b5f601f8311600181146115cf575f84156115bd578287013590505b6115c785826113a4565b86555061162e565b601f1984166115dd8661120e565b5f5b82811015611604578489013582556001820191506020850194506020810190506115df565b86831015611621578489013561161d601f891682611388565b8355505b6001600288020188555050505b50505050505050565b5f6020820190508181035f83015261165081848661149c565b90509392505050565b5f60208201905061166c5f8301846110ae565b9291505056fea264697066735822122092133d6f09c68dcd7535522472ef9cb42fbb710da45cc9e90cea7a8b5d7a6a6564736f6c63430008210033","linkReferences":{}},"methodIdentifiers":{"agentCount()":"b7dc1284","agentList(uint256)":"2f80c54f","agents(address)":"fd66091e","getAgent(address)":"fb3551ff","getAllAgents()":"860e4ac6","owner()":"8da5cb5b","registerAgent(string,string,bool)":"75a31a22","togglePrivacy(bool)":"b3deaf7d","updateMetadata(string)":"918b5be1"},"id":16}