{"abi":[{"type":"constructor","inputs":[],"stateMutability":"nonpayable"},{"type":"function","name":"agents","inputs":[{"name":"","type":"uint256","internalType":"uint256"}],"outputs":[{"name":"owner","type":"address","internalType":"address"},{"name":"inftTokenId","type":"uint256","internalType":"uint256"},{"name":"metadata","type":"string","internalType":"string"},{"name":"privacyEnabled","type":"bool","internalType":"bool"},{"name":"registeredAt","type":"uint256","internalType":"uint256"}],"stateMutability":"view"},{"type":"function","name":"getAgent","inputs":[{"name":"tokenId","type":"uint256","internalType":"uint256"}],"outputs":[{"name":"","type":"tuple","internalType":"struct AgentRegistry.AgentInfo","components":[{"name":"owner","type":"address","internalType":"address"},{"name":"inftTokenId","type":"uint256","internalType":"uint256"},{"name":"metadata","type":"string","internalType":"string"},{"name":"privacyEnabled","type":"bool","internalType":"bool"},{"name":"registeredAt","type":"uint256","internalType":"uint256"}]}],"stateMutability":"view"},{"type":"function","name":"logAction","inputs":[{"name":"tokenId","type":"uint256","internalType":"uint256"},{"name":"actionType","type":"string","internalType":"string"},{"name":"dataHash","type":"string","internalType":"string"}],"outputs":[],"stateMutability":"nonpayable"},{"type":"function","name":"mintAndRegister","inputs":[{"name":"inftContract","type":"address","internalType":"address"},{"name":"encryptedUri","type":"string","internalType":"string"},{"name":"metadataHash","type":"bytes32","internalType":"bytes32"},{"name":"privacyEnabled","type":"bool","internalType":"bool"}],"outputs":[],"stateMutability":"nonpayable"},{"type":"function","name":"owner","inputs":[],"outputs":[{"name":"","type":"address","internalType":"address"}],"stateMutability":"view"},{"type":"function","name":"registeredTokens","inputs":[{"name":"","type":"uint256","internalType":"uint256"}],"outputs":[{"name":"","type":"uint256","internalType":"uint256"}],"stateMutability":"view"},{"type":"function","name":"togglePrivacy","inputs":[{"name":"tokenId","type":"uint256","internalType":"uint256"},{"name":"enabled","type":"bool","internalType":"bool"}],"outputs":[],"stateMutability":"nonpayable"},{"type":"event","name":"ActionLogged","inputs":[{"name":"tokenId","type":"uint256","indexed":true,"internalType":"uint256"},{"name":"owner","type":"address","indexed":true,"internalType":"address"},{"name":"actionType","type":"string","indexed":false,"internalType":"string"},{"name":"dataHash","type":"string","indexed":false,"internalType":"string"}],"anonymous":false},{"type":"event","name":"AgentRegistered","inputs":[{"name":"tokenId","type":"uint256","indexed":true,"internalType":"uint256"},{"name":"owner","type":"address","indexed":true,"internalType":"address"},{"name":"privacyEnabled","type":"bool","indexed":false,"internalType":"bool"}],"anonymous":false},{"type":"event","name":"PrivacyToggled","inputs":[{"name":"tokenId","type":"uint256","indexed":true,"internalType":"uint256"},{"name":"privacyEnabled","type":"bool","indexed":false,"internalType":"bool"}],"anonymous":false}],"bytecode":{"object":"0x6080604052348015600e575f5ffd5b503360025f6101000a81548173ffffffffffffffffffffffffffffffffffffffff021916908373ffffffffffffffffffffffffffffffffffffffff1602179055506113ea8061005c5f395ff3fe608060405234801561000f575f5ffd5b506004361061007b575f3560e01c8063513856c811610059578063513856c8146100e75780638da5cb5b1461011b5780639a0ba2ea14610139578063c4096009146101695761007b565b8063082826f91461007f5780632de5aaf71461009b5780634a7ce26a146100cb575b5f5ffd5b610099600480360381019061009491906109eb565b610185565b005b6100b560048036038101906100b09190610a7c565b6102d7565b6040516100c29190610bf2565b60405180910390f35b6100e560048036038101906100e09190610c99565b610413565b005b61010160048036038101906100fc9190610a7c565b610689565b604051610112959493929190610d92565b60405180910390f35b61012361076b565b6040516101309190610dea565b60405180910390f35b610153600480360381019061014e9190610a7c565b610790565b6040516101609190610e03565b60405180910390f35b610183600480360381019061017e9190610e1c565b6107b0565b005b845f5f5f8381526020019081526020015f2060040154036101db576040517f08c379a00000000000000000000000000000000000000000000000000000000081526004016101d290610ea4565b60405180910390fd5b3373ffffffffffffffffffffffffffffffffffffffff165f5f8381526020019081526020015f205f015f9054906101000a900473ffffffffffffffffffffffffffffffffffffffff1673ffffffffffffffffffffffffffffffffffffffff161461027a576040517f08c379a000000000000000000000000000000000000000000000000000000000815260040161027190610f0c565b60405180910390fd5b3373ffffffffffffffffffffffffffffffffffffffff16867fc2da7b40812b3a0ed1a5f6f9745835b1c60753286740a803c9326215efee31d9878787876040516102c79493929190610f64565b60405180910390a3505050505050565b6102df61090c565b5f5f8381526020019081526020015f206040518060a00160405290815f82015f9054906101000a900473ffffffffffffffffffffffffffffffffffffffff1673ffffffffffffffffffffffffffffffffffffffff1673ffffffffffffffffffffffffffffffffffffffff1681526020016001820154815260200160028201805461036890610fca565b80601f016020809104026020016040519081016040528092919081815260200182805461039490610fca565b80156103df5780601f106103b6576101008083540402835291602001916103df565b820191905f5260205f20905b8154815290600101906020018083116103c257829003601f168201915b50505050508152602001600382015f9054906101000a900460ff161515151581526020016004820154815250509050919050565b5f8573ffffffffffffffffffffffffffffffffffffffff1663d34047b6338787876040518563ffffffff1660e01b81526004016104539493929190611009565b6020604051808303815f875af115801561046f573d5f5f3e3d5ffd5b505050506040513d601f19601f82011682018060405250810190610493919061105b565b90505f5f5f8381526020019081526020015f2060040154146104ea576040517f08c379a00000000000000000000000000000000000000000000000000000000081526004016104e1906110d0565b60405180910390fd5b6040518060a001604052803373ffffffffffffffffffffffffffffffffffffffff16815260200182815260200186868080601f0160208091040260200160405190810160405280939291908181526020018383808284375f81840152601f19601f8201169050808301925050505050505081526020018315158152602001428152505f5f8381526020019081526020015f205f820151815f015f6101000a81548173ffffffffffffffffffffffffffffffffffffffff021916908373ffffffffffffffffffffffffffffffffffffffff1602179055506020820151816001015560408201518160020190816105df91906112cc565b506060820151816003015f6101000a81548160ff02191690831515021790555060808201518160040155905050600181908060018154018082558091505060019003905f5260205f20015f90919091909150553373ffffffffffffffffffffffffffffffffffffffff16817f0a1d212a7c11d96a5261284a8923abcf9b464825806c7a8fb51f0528e0ce97ac84604051610679919061139b565b60405180910390a3505050505050565b5f602052805f5260405f205f91509050805f015f9054906101000a900473ffffffffffffffffffffffffffffffffffffffff16908060010154908060020180546106d290610fca565b80601f01602080910402602001604051908101604052809291908181526020018280546106fe90610fca565b80156107495780601f1061072057610100808354040283529160200191610749565b820191905f5260205f20905b81548152906001019060200180831161072c57829003601f168201915b505050505090806003015f9054906101000a900460ff16908060040154905085565b60025f9054906101000a900473ffffffffffffffffffffffffffffffffffffffff1681565b6001818154811061079f575f80fd5b905f5260205f20015f915090505481565b815f5f5f8381526020019081526020015f206004015403610806576040517f08c379a00000000000000000000000000000000000000000000000000000000081526004016107fd90610ea4565b60405180910390fd5b3373ffffffffffffffffffffffffffffffffffffffff165f5f8381526020019081526020015f205f015f9054906101000a900473ffffffffffffffffffffffffffffffffffffffff1673ffffffffffffffffffffffffffffffffffffffff16146108a5576040517f08c379a000000000000000000000000000000000000000000000000000000000815260040161089c90610f0c565b60405180910390fd5b815f5f8581526020019081526020015f206003015f6101000a81548160ff021916908315150217905550827faffa1d1a746a2ee9fcd6c9d7bc17e7dd81882228dcf9569f58e0f0862a6fc2a1836040516108ff919061139b565b60405180910390a2505050565b6040518060a001604052805f73ffffffffffffffffffffffffffffffffffffffff1681526020015f8152602001606081526020015f151581526020015f81525090565b5f5ffd5b5f5ffd5b5f819050919050565b61096981610957565b8114610973575f5ffd5b50565b5f8135905061098481610960565b92915050565b5f5ffd5b5f5ffd5b5f5ffd5b5f5f83601f8401126109ab576109aa61098a565b5b8235905067ffffffffffffffff8111156109c8576109c761098e565b5b6020830191508360018202830111156109e4576109e3610992565b5b9250929050565b5f5f5f5f5f60608688031215610a0457610a0361094f565b5b5f610a1188828901610976565b955050602086013567ffffffffffffffff811115610a3257610a31610953565b5b610a3e88828901610996565b9450945050604086013567ffffffffffffffff811115610a6157610a60610953565b5b610a6d88828901610996565b92509250509295509295909350565b5f60208284031215610a9157610a9061094f565b5b5f610a9e84828501610976565b91505092915050565b5f73ffffffffffffffffffffffffffffffffffffffff82169050919050565b5f610ad082610aa7565b9050919050565b610ae081610ac6565b82525050565b610aef81610957565b82525050565b5f81519050919050565b5f82825260208201905092915050565b8281835e5f83830152505050565b5f601f19601f8301169050919050565b5f610b3782610af5565b610b418185610aff565b9350610b51818560208601610b0f565b610b5a81610b1d565b840191505092915050565b5f8115159050919050565b610b7981610b65565b82525050565b5f60a083015f830151610b945f860182610ad7565b506020830151610ba76020860182610ae6565b5060408301518482036040860152610bbf8282610b2d565b9150506060830151610bd46060860182610b70565b506080830151610be76080860182610ae6565b508091505092915050565b5f6020820190508181035f830152610c0a8184610b7f565b905092915050565b610c1b81610ac6565b8114610c25575f5ffd5b50565b5f81359050610c3681610c12565b92915050565b5f819050919050565b610c4e81610c3c565b8114610c58575f5ffd5b50565b5f81359050610c6981610c45565b92915050565b610c7881610b65565b8114610c82575f5ffd5b50565b5f81359050610c9381610c6f565b92915050565b5f5f5f5f5f60808688031215610cb257610cb161094f565b5b5f610cbf88828901610c28565b955050602086013567ffffffffffffffff811115610ce057610cdf610953565b5b610cec88828901610996565b94509450506040610cff88828901610c5b565b9250506060610d1088828901610c85565b9150509295509295909350565b610d2681610ac6565b82525050565b610d3581610957565b82525050565b5f82825260208201905092915050565b5f610d5582610af5565b610d5f8185610d3b565b9350610d6f818560208601610b0f565b610d7881610b1d565b840191505092915050565b610d8c81610b65565b82525050565b5f60a082019050610da55f830188610d1d565b610db26020830187610d2c565b8181036040830152610dc48186610d4b565b9050610dd36060830185610d83565b610de06080830184610d2c565b9695505050505050565b5f602082019050610dfd5f830184610d1d565b92915050565b5f602082019050610e165f830184610d2c565b92915050565b5f5f60408385031215610e3257610e3161094f565b5b5f610e3f85828601610976565b9250506020610e5085828601610c85565b9150509250929050565b7f4167656e74206e6f7420726567697374657265640000000000000000000000005f82015250565b5f610e8e601483610d3b565b9150610e9982610e5a565b602082019050919050565b5f6020820190508181035f830152610ebb81610e82565b9050919050565b7f4e6f74206f776e657200000000000000000000000000000000000000000000005f82015250565b5f610ef6600983610d3b565b9150610f0182610ec2565b602082019050919050565b5f6020820190508181035f830152610f2381610eea565b9050919050565b828183375f83830152505050565b5f610f438385610d3b565b9350610f50838584610f2a565b610f5983610b1d565b840190509392505050565b5f6040820190508181035f830152610f7d818688610f38565b90508181036020830152610f92818486610f38565b905095945050505050565b7f4e487b71000000000000000000000000000000000000000000000000000000005f52602260045260245ffd5b5f6002820490506001821680610fe157607f821691505b602082108103610ff457610ff3610f9d565b5b50919050565b61100381610c3c565b82525050565b5f60608201905061101c5f830187610d1d565b818103602083015261102f818587610f38565b905061103e6040830184610ffa565b95945050505050565b5f8151905061105581610960565b92915050565b5f602082840312156110705761106f61094f565b5b5f61107d84828501611047565b91505092915050565b7f416c7265616479207265676973746572656400000000000000000000000000005f82015250565b5f6110ba601283610d3b565b91506110c582611086565b602082019050919050565b5f6020820190508181035f8301526110e7816110ae565b9050919050565b7f4e487b71000000000000000000000000000000000000000000000000000000005f52604160045260245ffd5b5f819050815f5260205f209050919050565b5f6020601f8301049050919050565b5f82821b905092915050565b5f600883026111777fffffffffffffffffffffffffffffffffffffffffffffffffffffffffffffffff8261113c565b611181868361113c565b95508019841693508086168417925050509392505050565b5f819050919050565b5f6111bc6111b76111b284610957565b611199565b610957565b9050919050565b5f819050919050565b6111d5836111a2565b6111e96111e1826111c3565b848454611148565b825550505050565b5f5f905090565b6112006111f1565b61120b8184846111cc565b505050565b5f5b82811015611231576112265f8284016111f8565b600181019050611212565b505050565b601f8211156112845782821115611283576112508161111b565b6112598361112d565b6112628561112d565b602086101561126f575f90505b80830161127e82840382611210565b505050505b5b505050565b5f82821c905092915050565b5f6112a45f1984600802611289565b1980831691505092915050565b5f6112bc8383611295565b9150826002028217905092915050565b6112d582610af5565b67ffffffffffffffff8111156112ee576112ed6110ee565b5b6112f88254610fca565b611303828285611236565b5f60209050601f831160018114611334575f8415611322578287015190505b61132c85826112b1565b865550611393565b601f1984166113428661111b565b5f5b8281101561136957848901518255600182019150602085019450602081019050611344565b868310156113865784890151611382601f891682611295565b8355505b6001600288020188555050505b505050505050565b5f6020820190506113ae5f830184610d83565b9291505056fea2646970667358221220174d8907b78bd352b69f5c1b399eafbaf837def03fb0e07b6efdd32571514c5564736f6c63430008210033","linkReferences":{}},"methodIdentifiers":{"agents(uint256)":"513856c8","getAgent(uint256)":"2de5aaf7","logAction(uint256,string,string)":"082826f9","mintAndRegister(address,string,bytes32,bool)":"4a7ce26a","owner()":"8da5cb5b","registeredTokens(uint256)":"9a0ba2ea","togglePrivacy(uint256,bool)":"c4096009"},"id":41}